{
  "_format": "hh-sol-artifact-1",
  "contractName": "DawnOfTheDinos",
  "sourceName": "contracts/Dinos.sol",
  "abi": [
    {
      "inputs": [
        {
          "internalType": "string",
          "name": "baseURI",
          "type": "string"
        }
      ],
      "stateMutability": "nonpayable",
      "type": "constructor"
    },
    {
      "anonymous": false,
      "inputs": [
        {
          "indexed": true,
          "internalType": "address",
          "name": "owner",
          "type": "address"
        },
        {
          "indexed": true,
          "internalType": "address",
          "name": "approved",
          "type": "address"
        },
        {
          "indexed": true,
          "internalType": "uint256",
          "name": "tokenId",
          "type": "uint256"
        }
      ],
      "name": "Approval",
      "type": "event"
    },
    {
      "anonymous": false,
      "inputs": [
        {
          "indexed": true,
          "internalType": "address",
          "name": "owner",
          "type": "address"
        },
        {
          "indexed": true,
          "internalType": "address",
          "name": "operator",
          "type": "address"
        },
        {
          "indexed": false,
          "internalType": "bool",
          "name": "approved",
          "type": "bool"
        }
      ],
      "name": "ApprovalForAll",
      "type": "event"
    },
    {
      "anonymous": false,
      "inputs": [
        {
          "indexed": true,
          "internalType": "address",
          "name": "previousOwner",
          "type": "address"
        },
        {
          "indexed": true,
          "internalType": "address",
          "name": "newOwner",
          "type": "address"
        }
      ],
      "name": "OwnershipTransferred",
      "type": "event"
    },
    {
      "anonymous": false,
      "inputs": [
        {
          "indexed": true,
          "internalType": "address",
          "name": "from",
          "type": "address"
        },
        {
          "indexed": true,
          "internalType": "address",
          "name": "to",
          "type": "address"
        },
        {
          "indexed": true,
          "internalType": "uint256",
          "name": "tokenId",
          "type": "uint256"
        }
      ],
      "name": "Transfer",
      "type": "event"
    },
    {
      "inputs": [
        {
          "internalType": "address",
          "name": "to",
          "type": "address"
        },
        {
          "internalType": "uint256",
          "name": "tokenId",
          "type": "uint256"
        }
      ],
      "name": "approve",
      "outputs": [],
      "stateMutability": "nonpayable",
      "type": "function"
    },
    {
      "inputs": [
        {
          "internalType": "address",
          "name": "owner",
          "type": "address"
        }
      ],
      "name": "balanceOf",
      "outputs": [
        {
          "internalType": "uint256",
          "name": "",
          "type": "uint256"
        }
      ],
      "stateMutability": "view",
      "type": "function"
    },
    {
      "inputs": [
        {
          "internalType": "uint256",
          "name": "tokenId",
          "type": "uint256"
        }
      ],
      "name": "getApproved",
      "outputs": [
        {
          "internalType": "address",
          "name": "",
          "type": "address"
        }
      ],
      "stateMutability": "view",
      "type": "function"
    },
    {
      "inputs": [],
      "name": "getPrice",
      "outputs": [
        {
          "internalType": "uint256",
          "name": "",
          "type": "uint256"
        }
      ],
      "stateMutability": "view",
      "type": "function"
    },
    {
      "inputs": [
        {
          "internalType": "address",
          "name": "owner",
          "type": "address"
        },
        {
          "internalType": "address",
          "name": "operator",
          "type": "address"
        }
      ],
      "name": "isApprovedForAll",
      "outputs": [
        {
          "internalType": "bool",
          "name": "",
          "type": "bool"
        }
      ],
      "stateMutability": "view",
      "type": "function"
    },
    {
      "inputs": [
        {
          "internalType": "uint8",
          "name": "_amount",
          "type": "uint8"
        }
      ],
      "name": "mint",
      "outputs": [],
      "stateMutability": "payable",
      "type": "function"
    },
    {
      "inputs": [
        {
          "internalType": "address",
          "name": "_to",
          "type": "address"
        },
        {
          "internalType": "uint256",
          "name": "_amount",
          "type": "uint256"
        }
      ],
      "name": "mintTo",
      "outputs": [],
      "stateMutability": "nonpayable",
      "type": "function"
    },
    {
      "inputs": [],
      "name": "name",
      "outputs": [
        {
          "internalType": "string",
          "name": "",
          "type": "string"
        }
      ],
      "stateMutability": "view",
      "type": "function"
    },
    {
      "inputs": [],
      "name": "owner",
      "outputs": [
        {
          "internalType": "address",
          "name": "",
          "type": "address"
        }
      ],
      "stateMutability": "view",
      "type": "function"
    },
    {
      "inputs": [
        {
          "internalType": "uint256",
          "name": "tokenId",
          "type": "uint256"
        }
      ],
      "name": "ownerOf",
      "outputs": [
        {
          "internalType": "address",
          "name": "",
          "type": "address"
        }
      ],
      "stateMutability": "view",
      "type": "function"
    },
    {
      "inputs": [
        {
          "internalType": "bool",
          "name": "_value",
          "type": "bool"
        }
      ],
      "name": "pause",
      "outputs": [],
      "stateMutability": "nonpayable",
      "type": "function"
    },
    {
      "inputs": [],
      "name": "renounceOwnership",
      "outputs": [],
      "stateMutability": "nonpayable",
      "type": "function"
    },
    {
      "inputs": [
        {
          "internalType": "address",
          "name": "from",
          "type": "address"
        },
        {
          "internalType": "address",
          "name": "to",
          "type": "address"
        },
        {
          "internalType": "uint256",
          "name": "tokenId",
          "type": "uint256"
        }
      ],
      "name": "safeTransferFrom",
      "outputs": [],
      "stateMutability": "nonpayable",
      "type": "function"
    },
    {
      "inputs": [
        {
          "internalType": "address",
          "name": "from",
          "type": "address"
        },
        {
          "internalType": "address",
          "name": "to",
          "type": "address"
        },
        {
          "internalType": "uint256",
          "name": "tokenId",
          "type": "uint256"
        },
        {
          "internalType": "bytes",
          "name": "_data",
          "type": "bytes"
        }
      ],
      "name": "safeTransferFrom",
      "outputs": [],
      "stateMutability": "nonpayable",
      "type": "function"
    },
    {
      "inputs": [
        {
          "internalType": "address",
          "name": "operator",
          "type": "address"
        },
        {
          "internalType": "bool",
          "name": "approved",
          "type": "bool"
        }
      ],
      "name": "setApprovalForAll",
      "outputs": [],
      "stateMutability": "nonpayable",
      "type": "function"
    },
    {
      "inputs": [
        {
          "internalType": "string",
          "name": "baseURI",
          "type": "string"
        }
      ],
      "name": "setBaseURI",
      "outputs": [],
      "stateMutability": "nonpayable",
      "type": "function"
    },
    {
      "inputs": [
        {
          "internalType": "bytes4",
          "name": "interfaceId",
          "type": "bytes4"
        }
      ],
      "name": "supportsInterface",
      "outputs": [
        {
          "internalType": "bool",
          "name": "",
          "type": "bool"
        }
      ],
      "stateMutability": "view",
      "type": "function"
    },
    {
      "inputs": [],
      "name": "symbol",
      "outputs": [
        {
          "internalType": "string",
          "name": "",
          "type": "string"
        }
      ],
      "stateMutability": "view",
      "type": "function"
    },
    {
      "inputs": [
        {
          "internalType": "uint256",
          "name": "index",
          "type": "uint256"
        }
      ],
      "name": "tokenByIndex",
      "outputs": [
        {
          "internalType": "uint256",
          "name": "",
          "type": "uint256"
        }
      ],
      "stateMutability": "view",
      "type": "function"
    },
    {
      "inputs": [
        {
          "internalType": "address",
          "name": "owner",
          "type": "address"
        },
        {
          "internalType": "uint256",
          "name": "index",
          "type": "uint256"
        }
      ],
      "name": "tokenOfOwnerByIndex",
      "outputs": [
        {
          "internalType": "uint256",
          "name": "",
          "type": "uint256"
        }
      ],
      "stateMutability": "view",
      "type": "function"
    },
    {
      "inputs": [
        {
          "internalType": "uint256",
          "name": "tokenId",
          "type": "uint256"
        }
      ],
      "name": "tokenURI",
      "outputs": [
        {
          "internalType": "string",
          "name": "",
          "type": "string"
        }
      ],
      "stateMutability": "view",
      "type": "function"
    },
    {
      "inputs": [],
      "name": "totalSupply",
      "outputs": [
        {
          "internalType": "uint256",
          "name": "",
          "type": "uint256"
        }
      ],
      "stateMutability": "view",
      "type": "function"
    },
    {
      "inputs": [
        {
          "internalType": "address",
          "name": "from",
          "type": "address"
        },
        {
          "internalType": "address",
          "name": "to",
          "type": "address"
        },
        {
          "internalType": "uint256",
          "name": "tokenId",
          "type": "uint256"
        }
      ],
      "name": "transferFrom",
      "outputs": [],
      "stateMutability": "nonpayable",
      "type": "function"
    },
    {
      "inputs": [
        {
          "internalType": "address",
          "name": "newOwner",
          "type": "address"
        }
      ],
      "name": "transferOwnership",
      "outputs": [],
      "stateMutability": "nonpayable",
      "type": "function"
    },
    {
      "inputs": [
        {
          "internalType": "address",
          "name": "_owner",
          "type": "address"
        }
      ],
      "name": "walletOfOwner",
      "outputs": [
        {
          "internalType": "uint256[]",
          "name": "",
          "type": "uint256[]"
        }
      ],
      "stateMutability": "view",
      "type": "function"
    },
    {
      "inputs": [],
      "name": "withdrawBalance",
      "outputs": [],
      "stateMutability": "payable",
      "type": "function"
    }
  ],
  "bytecode": "0x608060405273d7e4a8e47f9645a0a7594a343ff13859efe7fcc1600e60016101000a81548173ffffffffffffffffffffffffffffffffffffffff021916908373ffffffffffffffffffffffffffffffffffffffff16021790555073f3644fed397f1531833d23166cc3b82c90caaca6600f60006101000a81548173ffffffffffffffffffffffffffffffffffffffff021916908373ffffffffffffffffffffffffffffffffffffffff160217905550735e4165149c77bce857585789dafdf6f54bc34650601060006101000a81548173ffffffffffffffffffffffffffffffffffffffff021916908373ffffffffffffffffffffffffffffffffffffffff16021790555073a8d145dd3003817da1dc83f838ee5088b65acf2e601160006101000a81548173ffffffffffffffffffffffffffffffffffffffff021916908373ffffffffffffffffffffffffffffffffffffffff16021790555073f59baccbacfa9c87970a6ccd52af8dfdf87dff1c601260006101000a81548173ffffffffffffffffffffffffffffffffffffffff021916908373ffffffffffffffffffffffffffffffffffffffff16021790555072ec891371bbd69d4cc75f6a55dcd9792a6f0be6601360006101000a81548173ffffffffffffffffffffffffffffffffffffffff021916908373ffffffffffffffffffffffffffffffffffffffff16021790555073262456d9a98537f4706324666b28bfa4e9d23446601460006101000a81548173ffffffffffffffffffffffffffffffffffffffff021916908373ffffffffffffffffffffffffffffffffffffffff1602179055507367b70cd9e2926f901f55ac2d34d0652be975cd4e601560006101000a81548173ffffffffffffffffffffffffffffffffffffffff021916908373ffffffffffffffffffffffffffffffffffffffff160217905550731ddab7a7e4f1c7a75a6b704c9d26cf7bb294a67d601660006101000a81548173ffffffffffffffffffffffffffffffffffffffff021916908373ffffffffffffffffffffffffffffffffffffffff1602179055503480156200030d57600080fd5b5060405162005ddb38038062005ddb833981810160405281019062000333919062001392565b6040518060400160405280601181526020017f4461776e206f66207468652044696e6f730000000000000000000000000000008152506040518060400160405280600481526020017f444f5444000000000000000000000000000000000000000000000000000000008152508160009080519060200190620003b79291906200122d565b508060019080519060200190620003d09291906200122d565b505050620003f3620003e76200061960201b60201c565b6200062160201b60201c565b6200040481620006e760201b60201c565b62000439601660009054906101000a900473ffffffffffffffffffffffffffffffffffffffff1660006200079260201b60201c565b6200046e601460009054906101000a900473ffffffffffffffffffffffffffffffffffffffff1660016200079260201b60201c565b620004a3601560009054906101000a900473ffffffffffffffffffffffffffffffffffffffff1660026200079260201b60201c565b620004d8601260009054906101000a900473ffffffffffffffffffffffffffffffffffffffff1660036200079260201b60201c565b6200050d601360009054906101000a900473ffffffffffffffffffffffffffffffffffffffff1660046200079260201b60201c565b62000542601160009054906101000a900473ffffffffffffffffffffffffffffffffffffffff1660056200079260201b60201c565b62000577600f60009054906101000a900473ffffffffffffffffffffffffffffffffffffffff1660066200079260201b60201c565b620005ac601060009054906101000a900473ffffffffffffffffffffffffffffffffffffffff1660076200079260201b60201c565b620005e1600e60019054906101000a900473ffffffffffffffffffffffffffffffffffffffff1660086200079260201b60201c565b66e6ed27d6668000600c8190555060c8600d819055506001600e60006101000a81548160ff0219169083151502179055505062001988565b600033905090565b6000600a60009054906101000a900473ffffffffffffffffffffffffffffffffffffffff16905081600a60006101000a81548173ffffffffffffffffffffffffffffffffffffffff021916908373ffffffffffffffffffffffffffffffffffffffff1602179055508173ffffffffffffffffffffffffffffffffffffffff168173ffffffffffffffffffffffffffffffffffffffff167f8be0079c531659141344cd1fd0a4f28419497f9722a3daafe3b4186f6b6457e060405160405180910390a35050565b620006f76200061960201b60201c565b73ffffffffffffffffffffffffffffffffffffffff166200071d620007b860201b60201c565b73ffffffffffffffffffffffffffffffffffffffff161462000776576040517f08c379a00000000000000000000000000000000000000000000000000000000081526004016200076d90620016ac565b60405180910390fd5b80600b90805190602001906200078e9291906200122d565b5050565b620007b4828260405180602001604052806000815250620007e260201b60201c565b5050565b6000600a60009054906101000a900473ffffffffffffffffffffffffffffffffffffffff16905090565b620007f483836200085060201b60201c565b62000809600084848462000a3660201b60201c565b6200084b576040517f08c379a0000000000000000000000000000000000000000000000000000000008152600401620008429062001624565b60405180910390fd5b505050565b600073ffffffffffffffffffffffffffffffffffffffff168273ffffffffffffffffffffffffffffffffffffffff161415620008c3576040517f08c379a0000000000000000000000000000000000000000000000000000000008152600401620008ba906200168a565b60405180910390fd5b620008d48162000bf060201b60201c565b1562000917576040517f08c379a00000000000000000000000000000000000000000000000000000000081526004016200090e9062001646565b60405180910390fd5b6200092b6000838362000c5c60201b60201c565b6001600360008473ffffffffffffffffffffffffffffffffffffffff1673ffffffffffffffffffffffffffffffffffffffff16815260200190815260200160002060008282546200097d919062001762565b92505081905550816002600083815260200190815260200160002060006101000a81548173ffffffffffffffffffffffffffffffffffffffff021916908373ffffffffffffffffffffffffffffffffffffffff160217905550808273ffffffffffffffffffffffffffffffffffffffff16600073ffffffffffffffffffffffffffffffffffffffff167fddf252ad1be2c89b69c2b068fc378daa952ba7f163c4a11628f55a4df523b3ef60405160405180910390a45050565b600062000a648473ffffffffffffffffffffffffffffffffffffffff1662000c7960201b62001b3c1760201c565b1562000be3578373ffffffffffffffffffffffffffffffffffffffff1663150b7a0262000a966200061960201b60201c565b8786866040518563ffffffff1660e01b815260040162000aba9493929190620015d0565b602060405180830381600087803b15801562000ad557600080fd5b505af192505050801562000b0957506040513d601f19601f8201168201806040525081019062000b06919062001366565b60015b62000b92573d806000811462000b3c576040519150601f19603f3d011682016040523d82523d6000602084013e62000b41565b606091505b5060008151141562000b8a576040517f08c379a000000000000000000000000000000000000000000000000000000000815260040162000b819062001624565b60405180910390fd5b805181602001fd5b63150b7a0260e01b7bffffffffffffffffffffffffffffffffffffffffffffffffffffffff1916817bffffffffffffffffffffffffffffffffffffffffffffffffffffffff19161491505062000be8565b600190505b949350505050565b60008073ffffffffffffffffffffffffffffffffffffffff166002600084815260200190815260200160002060009054906101000a900473ffffffffffffffffffffffffffffffffffffffff1673ffffffffffffffffffffffffffffffffffffffff1614159050919050565b62000c7483838362000c8c60201b62001b4f1760201c565b505050565b600080823b905060008111915050919050565b62000ca483838362000dd360201b62001c631760201c565b600073ffffffffffffffffffffffffffffffffffffffff168373ffffffffffffffffffffffffffffffffffffffff16141562000cf15762000ceb8162000dd860201b60201c565b62000d39565b8173ffffffffffffffffffffffffffffffffffffffff168373ffffffffffffffffffffffffffffffffffffffff161462000d385762000d37838262000e2160201b60201c565b5b5b600073ffffffffffffffffffffffffffffffffffffffff168273ffffffffffffffffffffffffffffffffffffffff16141562000d865762000d808162000f9e60201b60201c565b62000dce565b8273ffffffffffffffffffffffffffffffffffffffff168273ffffffffffffffffffffffffffffffffffffffff161462000dcd5762000dcc8282620010e660201b60201c565b5b5b505050565b505050565b6008805490506009600083815260200190815260200160002081905550600881908060018154018082558091505060019003906000526020600020016000909190919091505550565b6000600162000e3b846200117260201b620015201760201c565b62000e479190620017bf565b905060006007600084815260200190815260200160002054905081811462000f2d576000600660008673ffffffffffffffffffffffffffffffffffffffff1673ffffffffffffffffffffffffffffffffffffffff168152602001908152602001600020600084815260200190815260200160002054905080600660008773ffffffffffffffffffffffffffffffffffffffff1673ffffffffffffffffffffffffffffffffffffffff168152602001908152602001600020600084815260200190815260200160002081905550816007600083815260200190815260200160002081905550505b6007600084815260200190815260200160002060009055600660008573ffffffffffffffffffffffffffffffffffffffff1673ffffffffffffffffffffffffffffffffffffffff16815260200190815260200160002060008381526020019081526020016000206000905550505050565b6000600160088054905062000fb49190620017bf565b90506000600960008481526020019081526020016000205490506000600883815481106200100b577f4e487b7100000000000000000000000000000000000000000000000000000000600052603260045260246000fd5b90600052602060002001549050806008838154811062001054577f4e487b7100000000000000000000000000000000000000000000000000000000600052603260045260246000fd5b906000526020600020018190555081600960008381526020019081526020016000208190555060096000858152602001908152602001600020600090556008805480620010ca577f4e487b7100000000000000000000000000000000000000000000000000000000600052603160045260246000fd5b6001900381819060005260206000200160009055905550505050565b6000620010fe836200117260201b620015201760201c565b905081600660008573ffffffffffffffffffffffffffffffffffffffff1673ffffffffffffffffffffffffffffffffffffffff168152602001908152602001600020600083815260200190815260200160002081905550806007600084815260200190815260200160002081905550505050565b60008073ffffffffffffffffffffffffffffffffffffffff168273ffffffffffffffffffffffffffffffffffffffff161415620011e6576040517f08c379a0000000000000000000000000000000000000000000000000000000008152600401620011dd9062001668565b60405180910390fd5b600360008373ffffffffffffffffffffffffffffffffffffffff1673ffffffffffffffffffffffffffffffffffffffff168152602001908152602001600020549050919050565b8280546200123b906200189a565b90600052602060002090601f0160209004810192826200125f5760008555620012ab565b82601f106200127a57805160ff1916838001178555620012ab565b82800160010185558215620012ab579182015b82811115620012aa5782518255916020019190600101906200128d565b5b509050620012ba9190620012be565b5090565b5b80821115620012d9576000816000905550600101620012bf565b5090565b6000620012f4620012ee8462001702565b620016ce565b9050828152602081018484840111156200130d57600080fd5b6200131a84828562001864565b509392505050565b60008151905062001333816200196e565b92915050565b600082601f8301126200134b57600080fd5b81516200135d848260208601620012dd565b91505092915050565b6000602082840312156200137957600080fd5b6000620013898482850162001322565b91505092915050565b600060208284031215620013a557600080fd5b600082015167ffffffffffffffff811115620013c057600080fd5b620013ce8482850162001339565b91505092915050565b620013e281620017fa565b82525050565b6000620013f58262001735565b62001401818562001740565b93506200141381856020860162001864565b6200141e816200195d565b840191505092915050565b60006200143860328362001751565b91507f4552433732313a207472616e7366657220746f206e6f6e20455243373231526560008301527f63656976657220696d706c656d656e74657200000000000000000000000000006020830152604082019050919050565b6000620014a0601c8362001751565b91507f4552433732313a20746f6b656e20616c7265616479206d696e746564000000006000830152602082019050919050565b6000620014e2602a8362001751565b91507f4552433732313a2062616c616e636520717565727920666f7220746865207a6560008301527f726f2061646472657373000000000000000000000000000000000000000000006020830152604082019050919050565b60006200154a60208362001751565b91507f4552433732313a206d696e7420746f20746865207a65726f20616464726573736000830152602082019050919050565b60006200158c60208362001751565b91507f4f776e61626c653a2063616c6c6572206973206e6f7420746865206f776e65726000830152602082019050919050565b620015ca816200185a565b82525050565b6000608082019050620015e76000830187620013d7565b620015f66020830186620013d7565b620016056040830185620015bf565b8181036060830152620016198184620013e8565b905095945050505050565b600060208201905081810360008301526200163f8162001429565b9050919050565b60006020820190508181036000830152620016618162001491565b9050919050565b600060208201905081810360008301526200168381620014d3565b9050919050565b60006020820190508181036000830152620016a5816200153b565b9050919050565b60006020820190508181036000830152620016c7816200157d565b9050919050565b6000604051905081810181811067ffffffffffffffff82111715620016f857620016f76200192e565b5b8060405250919050565b600067ffffffffffffffff82111562001720576200171f6200192e565b5b601f19601f8301169050602081019050919050565b600081519050919050565b600082825260208201905092915050565b600082825260208201905092915050565b60006200176f826200185a565b91506200177c836200185a565b9250827fffffffffffffffffffffffffffffffffffffffffffffffffffffffffffffffff03821115620017b457620017b3620018d0565b5b828201905092915050565b6000620017cc826200185a565b9150620017d9836200185a565b925082821015620017ef57620017ee620018d0565b5b828203905092915050565b600062001807826200183a565b9050919050565b60007fffffffff0000000000000000000000000000000000000000000000000000000082169050919050565b600073ffffffffffffffffffffffffffffffffffffffff82169050919050565b6000819050919050565b60005b838110156200188457808201518184015260208101905062001867565b8381111562001894576000848401525b50505050565b60006002820490506001821680620018b357607f821691505b60208210811415620018ca57620018c9620018ff565b5b50919050565b7f4e487b7100000000000000000000000000000000000000000000000000000000600052601160045260246000fd5b7f4e487b7100000000000000000000000000000000000000000000000000000000600052602260045260246000fd5b7f4e487b7100000000000000000000000000000000000000000000000000000000600052604160045260246000fd5b6000601f19601f8301169050919050565b62001979816200180e565b81146200198557600080fd5b50565b61444380620019986000396000f3fe6080604052600436106101815760003560e01c80635fd8c710116100d157806395d89b411161008a578063b88d4fde11610064578063b88d4fde14610564578063c87b56dd1461058d578063e985e9c5146105ca578063f2fde38b1461060757610181565b806395d89b41146104e557806398d5fdca14610510578063a22cb4651461053b57610181565b80635fd8c710146104035780636352211e1461040d5780636ecd23061461044a57806370a0823114610466578063715018a6146104a35780638da5cb5b146104ba57610181565b806323b872dd1161013e578063438b630011610118578063438b630014610337578063449a52f8146103745780634f6ccce71461039d57806355f804b3146103da57610181565b806323b872dd146102a85780632f745c59146102d157806342842e0e1461030e57610181565b806301ffc9a71461018657806302329a29146101c357806306fdde03146101ec578063081812fc14610217578063095ea7b31461025457806318160ddd1461027d575b600080fd5b34801561019257600080fd5b506101ad60048036038101906101a89190613149565b610630565b6040516101ba9190613c04565b60405180910390f35b3480156101cf57600080fd5b506101ea60048036038101906101e59190613120565b610642565b005b3480156101f857600080fd5b506102016106db565b60405161020e9190613c1f565b60405180910390f35b34801561022357600080fd5b5061023e600480360381019061023991906131dc565b61076d565b60405161024b9190613b7b565b60405180910390f35b34801561026057600080fd5b5061027b600480360381019061027691906130e4565b6107f2565b005b34801561028957600080fd5b5061029261090a565b60405161029f9190613f21565b60405180910390f35b3480156102b457600080fd5b506102cf60048036038101906102ca9190612fde565b610917565b005b3480156102dd57600080fd5b506102f860048036038101906102f391906130e4565b610977565b6040516103059190613f21565b60405180910390f35b34801561031a57600080fd5b5061033560048036038101906103309190612fde565b610a1c565b005b34801561034357600080fd5b5061035e60048036038101906103599190612f79565b610a3c565b60405161036b9190613be2565b60405180910390f35b34801561038057600080fd5b5061039b600480360381019061039691906130e4565b610b36565b005b3480156103a957600080fd5b506103c460048036038101906103bf91906131dc565b610c55565b6040516103d19190613f21565b60405180910390f35b3480156103e657600080fd5b5061040160048036038101906103fc919061319b565b610cec565b005b61040b610d82565b005b34801561041957600080fd5b50610434600480360381019061042f91906131dc565b6112df565b6040516104419190613b7b565b60405180910390f35b610464600480360381019061045f9190613205565b611391565b005b34801561047257600080fd5b5061048d60048036038101906104889190612f79565b611520565b60405161049a9190613f21565b60405180910390f35b3480156104af57600080fd5b506104b86115d8565b005b3480156104c657600080fd5b506104cf611660565b6040516104dc9190613b7b565b60405180910390f35b3480156104f157600080fd5b506104fa61168a565b6040516105079190613c1f565b60405180910390f35b34801561051c57600080fd5b5061052561171c565b6040516105329190613f21565b60405180910390f35b34801561054757600080fd5b50610562600480360381019061055d91906130a8565b611726565b005b34801561057057600080fd5b5061058b6004803603810190610586919061302d565b6118a7565b005b34801561059957600080fd5b506105b460048036038101906105af91906131dc565b611909565b6040516105c19190613c1f565b60405180910390f35b3480156105d657600080fd5b506105f160048036038101906105ec9190612fa2565b6119b0565b6040516105fe9190613c04565b60405180910390f35b34801561061357600080fd5b5061062e60048036038101906106299190612f79565b611a44565b005b600061063b82611c68565b9050919050565b61064a611ce2565b73ffffffffffffffffffffffffffffffffffffffff16610668611660565b73ffffffffffffffffffffffffffffffffffffffff16146106be576040517f08c379a00000000000000000000000000000000000000000000000000000000081526004016106b590613e41565b60405180910390fd5b80600e60006101000a81548160ff02191690831515021790555050565b6060600080546106ea90614221565b80601f016020809104026020016040519081016040528092919081815260200182805461071690614221565b80156107635780601f1061073857610100808354040283529160200191610763565b820191906000526020600020905b81548152906001019060200180831161074657829003601f168201915b5050505050905090565b600061077882611cea565b6107b7576040517f08c379a00000000000000000000000000000000000000000000000000000000081526004016107ae90613e21565b60405180910390fd5b6004600083815260200190815260200160002060009054906101000a900473ffffffffffffffffffffffffffffffffffffffff169050919050565b60006107fd826112df565b90508073ffffffffffffffffffffffffffffffffffffffff168373ffffffffffffffffffffffffffffffffffffffff16141561086e576040517f08c379a000000000000000000000000000000000000000000000000000000000815260040161086590613ea1565b60405180910390fd5b8073ffffffffffffffffffffffffffffffffffffffff1661088d611ce2565b73ffffffffffffffffffffffffffffffffffffffff1614806108bc57506108bb816108b6611ce2565b6119b0565b5b6108fb576040517f08c379a00000000000000000000000000000000000000000000000000000000081526004016108f290613d81565b60405180910390fd5b6109058383611d56565b505050565b6000600880549050905090565b610928610922611ce2565b82611e0f565b610967576040517f08c379a000000000000000000000000000000000000000000000000000000000815260040161095e90613ec1565b60405180910390fd5b610972838383611eed565b505050565b600061098283611520565b82106109c3576040517f08c379a00000000000000000000000000000000000000000000000000000000081526004016109ba90613c61565b60405180910390fd5b600660008473ffffffffffffffffffffffffffffffffffffffff1673ffffffffffffffffffffffffffffffffffffffff168152602001908152602001600020600083815260200190815260200160002054905092915050565b610a37838383604051806020016040528060008152506118a7565b505050565b60606000610a4983611520565b905060008167ffffffffffffffff811115610a8d577f4e487b7100000000000000000000000000000000000000000000000000000000600052604160045260246000fd5b604051908082528060200260200182016040528015610abb5781602001602082028036833780820191505090505b50905060005b82811015610b2b57610ad38582610977565b828281518110610b0c577f4e487b7100000000000000000000000000000000000000000000000000000000600052603260045260246000fd5b6020026020010181815250508080610b2390614253565b915050610ac1565b508092505050919050565b610b3e611ce2565b73ffffffffffffffffffffffffffffffffffffffff16610b5c611660565b73ffffffffffffffffffffffffffffffffffffffff1614610bb2576040517f08c379a0000000000000000000000000000000000000000000000000000000008152600401610ba990613e41565b60405180910390fd5b600d54811115610bf7576040517f08c379a0000000000000000000000000000000000000000000000000000000008152600401610bee90613de1565b60405180910390fd5b6000610c0161090a565b905060005b82811015610c3657610c23848284610c1e9190614049565b612149565b8080610c2e90614253565b915050610c06565b5081600d6000828254610c49919061412a565b92505081905550505050565b6000610c5f61090a565b8210610ca0576040517f08c379a0000000000000000000000000000000000000000000000000000000008152600401610c9790613ee1565b60405180910390fd5b60088281548110610cda577f4e487b7100000000000000000000000000000000000000000000000000000000600052603260045260246000fd5b90600052602060002001549050919050565b610cf4611ce2565b73ffffffffffffffffffffffffffffffffffffffff16610d12611660565b73ffffffffffffffffffffffffffffffffffffffff1614610d68576040517f08c379a0000000000000000000000000000000000000000000000000000000008152600401610d5f90613e41565b60405180910390fd5b80600b9080519060200190610d7e929190612d88565b5050565b610d8a611ce2565b73ffffffffffffffffffffffffffffffffffffffff16610da8611660565b73ffffffffffffffffffffffffffffffffffffffff1614610dfe576040517f08c379a0000000000000000000000000000000000000000000000000000000008152600401610df590613e41565b60405180910390fd5b60004711610e0b57600080fd5b600e60019054906101000a900473ffffffffffffffffffffffffffffffffffffffff1673ffffffffffffffffffffffffffffffffffffffff166108fc610e5b60644761216790919063ffffffff16565b9081150290604051600060405180830381858888f19350505050610e7e57600080fd5b6000479050600f60009054906101000a900473ffffffffffffffffffffffffffffffffffffffff1673ffffffffffffffffffffffffffffffffffffffff166108fc610ee76103e8610ed9607d8661217d90919063ffffffff16565b61216790919063ffffffff16565b9081150290604051600060405180830381858888f19350505050158015610f12573d6000803e3d6000fd5b50601060009054906101000a900473ffffffffffffffffffffffffffffffffffffffff1673ffffffffffffffffffffffffffffffffffffffff166108fc610f776103e8610f69607d8661217d90919063ffffffff16565b61216790919063ffffffff16565b9081150290604051600060405180830381858888f19350505050158015610fa2573d6000803e3d6000fd5b50601160009054906101000a900473ffffffffffffffffffffffffffffffffffffffff1673ffffffffffffffffffffffffffffffffffffffff166108fc6110076103e8610ff9607d8661217d90919063ffffffff16565b61216790919063ffffffff16565b9081150290604051600060405180830381858888f19350505050158015611032573d6000803e3d6000fd5b50601260009054906101000a900473ffffffffffffffffffffffffffffffffffffffff1673ffffffffffffffffffffffffffffffffffffffff166108fc6110976103e8611089607d8661217d90919063ffffffff16565b61216790919063ffffffff16565b9081150290604051600060405180830381858888f193505050501580156110c2573d6000803e3d6000fd5b50601360009054906101000a900473ffffffffffffffffffffffffffffffffffffffff1673ffffffffffffffffffffffffffffffffffffffff166108fc6111276103e8611119607d8661217d90919063ffffffff16565b61216790919063ffffffff16565b9081150290604051600060405180830381858888f19350505050158015611152573d6000803e3d6000fd5b50601460009054906101000a900473ffffffffffffffffffffffffffffffffffffffff1673ffffffffffffffffffffffffffffffffffffffff166108fc6111b76103e86111a9607d8661217d90919063ffffffff16565b61216790919063ffffffff16565b9081150290604051600060405180830381858888f193505050501580156111e2573d6000803e3d6000fd5b50601560009054906101000a900473ffffffffffffffffffffffffffffffffffffffff1673ffffffffffffffffffffffffffffffffffffffff166108fc6112476103e8611239607d8661217d90919063ffffffff16565b61216790919063ffffffff16565b9081150290604051600060405180830381858888f19350505050158015611272573d6000803e3d6000fd5b50601660009054906101000a900473ffffffffffffffffffffffffffffffffffffffff1673ffffffffffffffffffffffffffffffffffffffff166108fc479081150290604051600060405180830381858888f193505050501580156112db573d6000803e3d6000fd5b5050565b6000806002600084815260200190815260200160002060009054906101000a900473ffffffffffffffffffffffffffffffffffffffff169050600073ffffffffffffffffffffffffffffffffffffffff168173ffffffffffffffffffffffffffffffffffffffff161415611388576040517f08c379a000000000000000000000000000000000000000000000000000000000815260040161137f90613dc1565b60405180910390fd5b80915050919050565b600061139b61090a565b9050600e60009054906101000a900460ff16156113ed576040517f08c379a00000000000000000000000000000000000000000000000000000000081526004016113e490613d41565b60405180910390fd5b60158260ff1610611433576040517f08c379a000000000000000000000000000000000000000000000000000000000815260040161142a90613c41565b60405180910390fd5b600d54612710611443919061412a565b8260ff16826114529190614049565b10611492576040517f08c379a000000000000000000000000000000000000000000000000000000000815260040161148990613d61565b60405180910390fd5b8160ff16600c546114a391906140d0565b3410156114e5576040517f08c379a00000000000000000000000000000000000000000000000000000000081526004016114dc90613f01565b60405180910390fd5b60005b8260ff1681101561151b576115083382846115039190614049565b612149565b808061151390614253565b9150506114e8565b505050565b60008073ffffffffffffffffffffffffffffffffffffffff168273ffffffffffffffffffffffffffffffffffffffff161415611591576040517f08c379a000000000000000000000000000000000000000000000000000000000815260040161158890613da1565b60405180910390fd5b600360008373ffffffffffffffffffffffffffffffffffffffff1673ffffffffffffffffffffffffffffffffffffffff168152602001908152602001600020549050919050565b6115e0611ce2565b73ffffffffffffffffffffffffffffffffffffffff166115fe611660565b73ffffffffffffffffffffffffffffffffffffffff1614611654576040517f08c379a000000000000000000000000000000000000000000000000000000000815260040161164b90613e41565b60405180910390fd5b61165e6000612193565b565b6000600a60009054906101000a900473ffffffffffffffffffffffffffffffffffffffff16905090565b60606001805461169990614221565b80601f01602080910402602001604051908101604052809291908181526020018280546116c590614221565b80156117125780601f106116e757610100808354040283529160200191611712565b820191906000526020600020905b8154815290600101906020018083116116f557829003601f168201915b5050505050905090565b6000600c54905090565b61172e611ce2565b73ffffffffffffffffffffffffffffffffffffffff168273ffffffffffffffffffffffffffffffffffffffff16141561179c576040517f08c379a000000000000000000000000000000000000000000000000000000000815260040161179390613d01565b60405180910390fd5b80600560006117a9611ce2565b73ffffffffffffffffffffffffffffffffffffffff1673ffffffffffffffffffffffffffffffffffffffff16815260200190815260200160002060008473ffffffffffffffffffffffffffffffffffffffff1673ffffffffffffffffffffffffffffffffffffffff16815260200190815260200160002060006101000a81548160ff0219169083151502179055508173ffffffffffffffffffffffffffffffffffffffff16611856611ce2565b73ffffffffffffffffffffffffffffffffffffffff167f17307eab39ab6107e8899845ad3d59bd9653f200f220920489ca2b5937696c318360405161189b9190613c04565b60405180910390a35050565b6118b86118b2611ce2565b83611e0f565b6118f7576040517f08c379a00000000000000000000000000000000000000000000000000000000081526004016118ee90613ec1565b60405180910390fd5b61190384848484612259565b50505050565b606061191482611cea565b611953576040517f08c379a000000000000000000000000000000000000000000000000000000000815260040161194a90613e81565b60405180910390fd5b600061195d6122b5565b9050600081511161197d57604051806020016040528060008152506119a8565b8061198784612347565b604051602001611998929190613b57565b6040516020818303038152906040525b915050919050565b6000600560008473ffffffffffffffffffffffffffffffffffffffff1673ffffffffffffffffffffffffffffffffffffffff16815260200190815260200160002060008373ffffffffffffffffffffffffffffffffffffffff1673ffffffffffffffffffffffffffffffffffffffff16815260200190815260200160002060009054906101000a900460ff16905092915050565b611a4c611ce2565b73ffffffffffffffffffffffffffffffffffffffff16611a6a611660565b73ffffffffffffffffffffffffffffffffffffffff1614611ac0576040517f08c379a0000000000000000000000000000000000000000000000000000000008152600401611ab790613e41565b60405180910390fd5b600073ffffffffffffffffffffffffffffffffffffffff168173ffffffffffffffffffffffffffffffffffffffff161415611b30576040517f08c379a0000000000000000000000000000000000000000000000000000000008152600401611b2790613ca1565b60405180910390fd5b611b3981612193565b50565b600080823b905060008111915050919050565b611b5a838383611c63565b600073ffffffffffffffffffffffffffffffffffffffff168373ffffffffffffffffffffffffffffffffffffffff161415611b9d57611b98816124f4565b611bdc565b8173ffffffffffffffffffffffffffffffffffffffff168373ffffffffffffffffffffffffffffffffffffffff1614611bdb57611bda838261253d565b5b5b600073ffffffffffffffffffffffffffffffffffffffff168273ffffffffffffffffffffffffffffffffffffffff161415611c1f57611c1a816126aa565b611c5e565b8273ffffffffffffffffffffffffffffffffffffffff168273ffffffffffffffffffffffffffffffffffffffff1614611c5d57611c5c82826127ed565b5b5b505050565b505050565b60007f780e9d63000000000000000000000000000000000000000000000000000000007bffffffffffffffffffffffffffffffffffffffffffffffffffffffff1916827bffffffffffffffffffffffffffffffffffffffffffffffffffffffff19161480611cdb5750611cda8261286c565b5b9050919050565b600033905090565b60008073ffffffffffffffffffffffffffffffffffffffff166002600084815260200190815260200160002060009054906101000a900473ffffffffffffffffffffffffffffffffffffffff1673ffffffffffffffffffffffffffffffffffffffff1614159050919050565b816004600083815260200190815260200160002060006101000a81548173ffffffffffffffffffffffffffffffffffffffff021916908373ffffffffffffffffffffffffffffffffffffffff160217905550808273ffffffffffffffffffffffffffffffffffffffff16611dc9836112df565b73ffffffffffffffffffffffffffffffffffffffff167f8c5be1e5ebec7d5bd14f71427d1e84f3dd0314c0f7b2291e5b200ac8c7c3b92560405160405180910390a45050565b6000611e1a82611cea565b611e59576040517f08c379a0000000000000000000000000000000000000000000000000000000008152600401611e5090613d21565b60405180910390fd5b6000611e64836112df565b90508073ffffffffffffffffffffffffffffffffffffffff168473ffffffffffffffffffffffffffffffffffffffff161480611ed357508373ffffffffffffffffffffffffffffffffffffffff16611ebb8461076d565b73ffffffffffffffffffffffffffffffffffffffff16145b80611ee45750611ee381856119b0565b5b91505092915050565b8273ffffffffffffffffffffffffffffffffffffffff16611f0d826112df565b73ffffffffffffffffffffffffffffffffffffffff1614611f63576040517f08c379a0000000000000000000000000000000000000000000000000000000008152600401611f5a90613e61565b60405180910390fd5b600073ffffffffffffffffffffffffffffffffffffffff168273ffffffffffffffffffffffffffffffffffffffff161415611fd3576040517f08c379a0000000000000000000000000000000000000000000000000000000008152600401611fca90613ce1565b60405180910390fd5b611fde83838361294e565b611fe9600082611d56565b6001600360008573ffffffffffffffffffffffffffffffffffffffff1673ffffffffffffffffffffffffffffffffffffffff1681526020019081526020016000206000828254612039919061412a565b925050819055506001600360008473ffffffffffffffffffffffffffffffffffffffff1673ffffffffffffffffffffffffffffffffffffffff16815260200190815260200160002060008282546120909190614049565b92505081905550816002600083815260200190815260200160002060006101000a81548173ffffffffffffffffffffffffffffffffffffffff021916908373ffffffffffffffffffffffffffffffffffffffff160217905550808273ffffffffffffffffffffffffffffffffffffffff168473ffffffffffffffffffffffffffffffffffffffff167fddf252ad1be2c89b69c2b068fc378daa952ba7f163c4a11628f55a4df523b3ef60405160405180910390a4505050565b61216382826040518060200160405280600081525061295e565b5050565b60008183612175919061409f565b905092915050565b6000818361218b91906140d0565b905092915050565b6000600a60009054906101000a900473ffffffffffffffffffffffffffffffffffffffff16905081600a60006101000a81548173ffffffffffffffffffffffffffffffffffffffff021916908373ffffffffffffffffffffffffffffffffffffffff1602179055508173ffffffffffffffffffffffffffffffffffffffff168173ffffffffffffffffffffffffffffffffffffffff167f8be0079c531659141344cd1fd0a4f28419497f9722a3daafe3b4186f6b6457e060405160405180910390a35050565b612264848484611eed565b612270848484846129b9565b6122af576040517f08c379a00000000000000000000000000000000000000000000000000000000081526004016122a690613c81565b60405180910390fd5b50505050565b6060600b80546122c490614221565b80601f01602080910402602001604051908101604052809291908181526020018280546122f090614221565b801561233d5780601f106123125761010080835404028352916020019161233d565b820191906000526020600020905b81548152906001019060200180831161232057829003601f168201915b5050505050905090565b6060600082141561238f576040518060400160405280600181526020017f300000000000000000000000000000000000000000000000000000000000000081525090506124ef565b600082905060005b600082146123c15780806123aa90614253565b915050600a826123ba919061409f565b9150612397565b60008167ffffffffffffffff811115612403577f4e487b7100000000000000000000000000000000000000000000000000000000600052604160045260246000fd5b6040519080825280601f01601f1916602001820160405280156124355781602001600182028036833780820191505090505b5090505b600085146124e85760018261244e919061412a565b9150600a8561245d919061429c565b60306124699190614049565b60f81b8183815181106124a5577f4e487b7100000000000000000000000000000000000000000000000000000000600052603260045260246000fd5b60200101907effffffffffffffffffffffffffffffffffffffffffffffffffffffffffffff1916908160001a905350600a856124e1919061409f565b9450612439565b8093505050505b919050565b6008805490506009600083815260200190815260200160002081905550600881908060018154018082558091505060019003906000526020600020016000909190919091505550565b6000600161254a84611520565b612554919061412a565b9050600060076000848152602001908152602001600020549050818114612639576000600660008673ffffffffffffffffffffffffffffffffffffffff1673ffffffffffffffffffffffffffffffffffffffff168152602001908152602001600020600084815260200190815260200160002054905080600660008773ffffffffffffffffffffffffffffffffffffffff1673ffffffffffffffffffffffffffffffffffffffff168152602001908152602001600020600084815260200190815260200160002081905550816007600083815260200190815260200160002081905550505b6007600084815260200190815260200160002060009055600660008573ffffffffffffffffffffffffffffffffffffffff1673ffffffffffffffffffffffffffffffffffffffff16815260200190815260200160002060008381526020019081526020016000206000905550505050565b600060016008805490506126be919061412a565b9050600060096000848152602001908152602001600020549050600060088381548110612714577f4e487b7100000000000000000000000000000000000000000000000000000000600052603260045260246000fd5b90600052602060002001549050806008838154811061275c577f4e487b7100000000000000000000000000000000000000000000000000000000600052603260045260246000fd5b9060005260206000200181905550816009600083815260200190815260200160002081905550600960008581526020019081526020016000206000905560088054806127d1577f4e487b7100000000000000000000000000000000000000000000000000000000600052603160045260246000fd5b6001900381819060005260206000200160009055905550505050565b60006127f883611520565b905081600660008573ffffffffffffffffffffffffffffffffffffffff1673ffffffffffffffffffffffffffffffffffffffff168152602001908152602001600020600083815260200190815260200160002081905550806007600084815260200190815260200160002081905550505050565b60007f80ac58cd000000000000000000000000000000000000000000000000000000007bffffffffffffffffffffffffffffffffffffffffffffffffffffffff1916827bffffffffffffffffffffffffffffffffffffffffffffffffffffffff1916148061293757507f5b5e139f000000000000000000000000000000000000000000000000000000007bffffffffffffffffffffffffffffffffffffffffffffffffffffffff1916827bffffffffffffffffffffffffffffffffffffffffffffffffffffffff1916145b80612947575061294682612b50565b5b9050919050565b612959838383611b4f565b505050565b6129688383612bba565b61297560008484846129b9565b6129b4576040517f08c379a00000000000000000000000000000000000000000000000000000000081526004016129ab90613c81565b60405180910390fd5b505050565b60006129da8473ffffffffffffffffffffffffffffffffffffffff16611b3c565b15612b43578373ffffffffffffffffffffffffffffffffffffffff1663150b7a02612a03611ce2565b8786866040518563ffffffff1660e01b8152600401612a259493929190613b96565b602060405180830381600087803b158015612a3f57600080fd5b505af1925050508015612a7057506040513d601f19601f82011682018060405250810190612a6d9190613172565b60015b612af3573d8060008114612aa0576040519150601f19603f3d011682016040523d82523d6000602084013e612aa5565b606091505b50600081511415612aeb576040517f08c379a0000000000000000000000000000000000000000000000000000000008152600401612ae290613c81565b60405180910390fd5b805181602001fd5b63150b7a0260e01b7bffffffffffffffffffffffffffffffffffffffffffffffffffffffff1916817bffffffffffffffffffffffffffffffffffffffffffffffffffffffff191614915050612b48565b600190505b949350505050565b60007f01ffc9a7000000000000000000000000000000000000000000000000000000007bffffffffffffffffffffffffffffffffffffffffffffffffffffffff1916827bffffffffffffffffffffffffffffffffffffffffffffffffffffffff1916149050919050565b600073ffffffffffffffffffffffffffffffffffffffff168273ffffffffffffffffffffffffffffffffffffffff161415612c2a576040517f08c379a0000000000000000000000000000000000000000000000000000000008152600401612c2190613e01565b60405180910390fd5b612c3381611cea565b15612c73576040517f08c379a0000000000000000000000000000000000000000000000000000000008152600401612c6a90613cc1565b60405180910390fd5b612c7f6000838361294e565b6001600360008473ffffffffffffffffffffffffffffffffffffffff1673ffffffffffffffffffffffffffffffffffffffff1681526020019081526020016000206000828254612ccf9190614049565b92505081905550816002600083815260200190815260200160002060006101000a81548173ffffffffffffffffffffffffffffffffffffffff021916908373ffffffffffffffffffffffffffffffffffffffff160217905550808273ffffffffffffffffffffffffffffffffffffffff16600073ffffffffffffffffffffffffffffffffffffffff167fddf252ad1be2c89b69c2b068fc378daa952ba7f163c4a11628f55a4df523b3ef60405160405180910390a45050565b828054612d9490614221565b90600052602060002090601f016020900481019282612db65760008555612dfd565b82601f10612dcf57805160ff1916838001178555612dfd565b82800160010185558215612dfd579182015b82811115612dfc578251825591602001919060010190612de1565b5b509050612e0a9190612e0e565b5090565b5b80821115612e27576000816000905550600101612e0f565b5090565b6000612e3e612e3984613f6d565b613f3c565b905082815260208101848484011115612e5657600080fd5b612e618482856141df565b509392505050565b6000612e7c612e7784613f9d565b613f3c565b905082815260208101848484011115612e9457600080fd5b612e9f8482856141df565b509392505050565b600081359050612eb68161439a565b92915050565b600081359050612ecb816143b1565b92915050565b600081359050612ee0816143c8565b92915050565b600081519050612ef5816143c8565b92915050565b600082601f830112612f0c57600080fd5b8135612f1c848260208601612e2b565b91505092915050565b600082601f830112612f3657600080fd5b8135612f46848260208601612e69565b91505092915050565b600081359050612f5e816143df565b92915050565b600081359050612f73816143f6565b92915050565b600060208284031215612f8b57600080fd5b6000612f9984828501612ea7565b91505092915050565b60008060408385031215612fb557600080fd5b6000612fc385828601612ea7565b9250506020612fd485828601612ea7565b9150509250929050565b600080600060608486031215612ff357600080fd5b600061300186828701612ea7565b935050602061301286828701612ea7565b925050604061302386828701612f4f565b9150509250925092565b6000806000806080858703121561304357600080fd5b600061305187828801612ea7565b945050602061306287828801612ea7565b935050604061307387828801612f4f565b925050606085013567ffffffffffffffff81111561309057600080fd5b61309c87828801612efb565b91505092959194509250565b600080604083850312156130bb57600080fd5b60006130c985828601612ea7565b92505060206130da85828601612ebc565b9150509250929050565b600080604083850312156130f757600080fd5b600061310585828601612ea7565b925050602061311685828601612f4f565b9150509250929050565b60006020828403121561313257600080fd5b600061314084828501612ebc565b91505092915050565b60006020828403121561315b57600080fd5b600061316984828501612ed1565b91505092915050565b60006020828403121561318457600080fd5b600061319284828501612ee6565b91505092915050565b6000602082840312156131ad57600080fd5b600082013567ffffffffffffffff8111156131c757600080fd5b6131d384828501612f25565b91505092915050565b6000602082840312156131ee57600080fd5b60006131fc84828501612f4f565b91505092915050565b60006020828403121561321757600080fd5b600061322584828501612f64565b91505092915050565b600061323a8383613b39565b60208301905092915050565b61324f8161415e565b82525050565b600061326082613fdd565b61326a818561400b565b935061327583613fcd565b8060005b838110156132a657815161328d888261322e565b975061329883613ffe565b925050600181019050613279565b5085935050505092915050565b6132bc81614170565b82525050565b60006132cd82613fe8565b6132d7818561401c565b93506132e78185602086016141ee565b6132f081614389565b840191505092915050565b600061330682613ff3565b613310818561402d565b93506133208185602086016141ee565b61332981614389565b840191505092915050565b600061333f82613ff3565b613349818561403e565b93506133598185602086016141ee565b80840191505092915050565b6000613372600d8361402d565b91507f32302044696e6f73206d617821000000000000000000000000000000000000006000830152602082019050919050565b60006133b2602b8361402d565b91507f455243373231456e756d657261626c653a206f776e657220696e646578206f7560008301527f74206f6620626f756e64730000000000000000000000000000000000000000006020830152604082019050919050565b600061341860328361402d565b91507f4552433732313a207472616e7366657220746f206e6f6e20455243373231526560008301527f63656976657220696d706c656d656e74657200000000000000000000000000006020830152604082019050919050565b600061347e60268361402d565b91507f4f776e61626c653a206e6577206f776e657220697320746865207a65726f206160008301527f64647265737300000000000000000000000000000000000000000000000000006020830152604082019050919050565b60006134e4601c8361402d565b91507f4552433732313a20746f6b656e20616c7265616479206d696e746564000000006000830152602082019050919050565b600061352460248361402d565b91507f4552433732313a207472616e7366657220746f20746865207a65726f2061646460008301527f72657373000000000000000000000000000000000000000000000000000000006020830152604082019050919050565b600061358a60198361402d565b91507f4552433732313a20617070726f766520746f2063616c6c6572000000000000006000830152602082019050919050565b60006135ca602c8361402d565b91507f4552433732313a206f70657261746f7220717565727920666f72206e6f6e657860008301527f697374656e7420746f6b656e00000000000000000000000000000000000000006020830152604082019050919050565b600061363060128361402d565b91507f4d696e74696e67206973207061757365642100000000000000000000000000006000830152602082019050919050565b600061367060108361402d565b91507f537570706c7920657863656564656421000000000000000000000000000000006000830152602082019050919050565b60006136b060388361402d565b91507f4552433732313a20617070726f76652063616c6c6572206973206e6f74206f7760008301527f6e6572206e6f7220617070726f76656420666f7220616c6c00000000000000006020830152604082019050919050565b6000613716602a8361402d565b91507f4552433732313a2062616c616e636520717565727920666f7220746865207a6560008301527f726f2061646472657373000000000000000000000000000000000000000000006020830152604082019050919050565b600061377c60298361402d565b91507f4552433732313a206f776e657220717565727920666f72206e6f6e657869737460008301527f656e7420746f6b656e00000000000000000000000000000000000000000000006020830152604082019050919050565b60006137e260128361402d565b91507f4865726420697320746f6f20736d616c6c2100000000000000000000000000006000830152602082019050919050565b600061382260208361402d565b91507f4552433732313a206d696e7420746f20746865207a65726f20616464726573736000830152602082019050919050565b6000613862602c8361402d565b91507f4552433732313a20617070726f76656420717565727920666f72206e6f6e657860008301527f697374656e7420746f6b656e00000000000000000000000000000000000000006020830152604082019050919050565b60006138c860208361402d565b91507f4f776e61626c653a2063616c6c6572206973206e6f7420746865206f776e65726000830152602082019050919050565b600061390860298361402d565b91507f4552433732313a207472616e73666572206f6620746f6b656e2074686174206960008301527f73206e6f74206f776e00000000000000000000000000000000000000000000006020830152604082019050919050565b600061396e602f8361402d565b91507f4552433732314d657461646174613a2055524920717565727920666f72206e6f60008301527f6e6578697374656e7420746f6b656e00000000000000000000000000000000006020830152604082019050919050565b60006139d460218361402d565b91507f4552433732313a20617070726f76616c20746f2063757272656e74206f776e6560008301527f72000000000000000000000000000000000000000000000000000000000000006020830152604082019050919050565b6000613a3a60318361402d565b91507f4552433732313a207472616e736665722063616c6c6572206973206e6f74206f60008301527f776e6572206e6f7220617070726f7665640000000000000000000000000000006020830152604082019050919050565b6000613aa0602c8361402d565b91507f455243373231456e756d657261626c653a20676c6f62616c20696e646578206f60008301527f7574206f6620626f756e647300000000000000000000000000000000000000006020830152604082019050919050565b6000613b0660118361402d565b91507f496e73756666696369656e7420455448210000000000000000000000000000006000830152602082019050919050565b613b42816141c8565b82525050565b613b51816141c8565b82525050565b6000613b638285613334565b9150613b6f8284613334565b91508190509392505050565b6000602082019050613b906000830184613246565b92915050565b6000608082019050613bab6000830187613246565b613bb86020830186613246565b613bc56040830185613b48565b8181036060830152613bd781846132c2565b905095945050505050565b60006020820190508181036000830152613bfc8184613255565b905092915050565b6000602082019050613c1960008301846132b3565b92915050565b60006020820190508181036000830152613c3981846132fb565b905092915050565b60006020820190508181036000830152613c5a81613365565b9050919050565b60006020820190508181036000830152613c7a816133a5565b9050919050565b60006020820190508181036000830152613c9a8161340b565b9050919050565b60006020820190508181036000830152613cba81613471565b9050919050565b60006020820190508181036000830152613cda816134d7565b9050919050565b60006020820190508181036000830152613cfa81613517565b9050919050565b60006020820190508181036000830152613d1a8161357d565b9050919050565b60006020820190508181036000830152613d3a816135bd565b9050919050565b60006020820190508181036000830152613d5a81613623565b9050919050565b60006020820190508181036000830152613d7a81613663565b9050919050565b60006020820190508181036000830152613d9a816136a3565b9050919050565b60006020820190508181036000830152613dba81613709565b9050919050565b60006020820190508181036000830152613dda8161376f565b9050919050565b60006020820190508181036000830152613dfa816137d5565b9050919050565b60006020820190508181036000830152613e1a81613815565b9050919050565b60006020820190508181036000830152613e3a81613855565b9050919050565b60006020820190508181036000830152613e5a816138bb565b9050919050565b60006020820190508181036000830152613e7a816138fb565b9050919050565b60006020820190508181036000830152613e9a81613961565b9050919050565b60006020820190508181036000830152613eba816139c7565b9050919050565b60006020820190508181036000830152613eda81613a2d565b9050919050565b60006020820190508181036000830152613efa81613a93565b9050919050565b60006020820190508181036000830152613f1a81613af9565b9050919050565b6000602082019050613f366000830184613b48565b92915050565b6000604051905081810181811067ffffffffffffffff82111715613f6357613f6261435a565b5b8060405250919050565b600067ffffffffffffffff821115613f8857613f8761435a565b5b601f19601f8301169050602081019050919050565b600067ffffffffffffffff821115613fb857613fb761435a565b5b601f19601f8301169050602081019050919050565b6000819050602082019050919050565b600081519050919050565b600081519050919050565b600081519050919050565b6000602082019050919050565b600082825260208201905092915050565b600082825260208201905092915050565b600082825260208201905092915050565b600081905092915050565b6000614054826141c8565b915061405f836141c8565b9250827fffffffffffffffffffffffffffffffffffffffffffffffffffffffffffffffff03821115614094576140936142cd565b5b828201905092915050565b60006140aa826141c8565b91506140b5836141c8565b9250826140c5576140c46142fc565b5b828204905092915050565b60006140db826141c8565b91506140e6836141c8565b9250817fffffffffffffffffffffffffffffffffffffffffffffffffffffffffffffffff048311821515161561411f5761411e6142cd565b5b828202905092915050565b6000614135826141c8565b9150614140836141c8565b925082821015614153576141526142cd565b5b828203905092915050565b6000614169826141a8565b9050919050565b60008115159050919050565b60007fffffffff0000000000000000000000000000000000000000000000000000000082169050919050565b600073ffffffffffffffffffffffffffffffffffffffff82169050919050565b6000819050919050565b600060ff82169050919050565b82818337600083830152505050565b60005b8381101561420c5780820151818401526020810190506141f1565b8381111561421b576000848401525b50505050565b6000600282049050600182168061423957607f821691505b6020821081141561424d5761424c61432b565b5b50919050565b600061425e826141c8565b91507fffffffffffffffffffffffffffffffffffffffffffffffffffffffffffffffff821415614291576142906142cd565b5b600182019050919050565b60006142a7826141c8565b91506142b2836141c8565b9250826142c2576142c16142fc565b5b828206905092915050565b7f4e487b7100000000000000000000000000000000000000000000000000000000600052601160045260246000fd5b7f4e487b7100000000000000000000000000000000000000000000000000000000600052601260045260246000fd5b7f4e487b7100000000000000000000000000000000000000000000000000000000600052602260045260246000fd5b7f4e487b7100000000000000000000000000000000000000000000000000000000600052604160045260246000fd5b6000601f19601f8301169050919050565b6143a38161415e565b81146143ae57600080fd5b50565b6143ba81614170565b81146143c557600080fd5b50565b6143d18161417c565b81146143dc57600080fd5b50565b6143e8816141c8565b81146143f357600080fd5b50565b6143ff816141d2565b811461440a57600080fd5b5056fea2646970667358221220aefd126cc1bcb9d4205d21d0a55dfc173875cbe1ccd13d513f4e92d4f49f053664736f6c63430008000033",
  "linkReferences": {},
  "deployedLinkReferences": {}
}