{
  "_format": "hh-sol-artifact-1",
  "contractName": "DawnOfTheDinos",
  "sourceName": "contracts/Dinos.sol",
  "abi": [
    {
      "inputs": [
        {
          "internalType": "string",
          "name": "baseURI",
          "type": "string"
        }
      ],
      "stateMutability": "nonpayable",
      "type": "constructor"
    },
    {
      "anonymous": false,
      "inputs": [
        {
          "indexed": true,
          "internalType": "address",
          "name": "owner",
          "type": "address"
        },
        {
          "indexed": true,
          "internalType": "address",
          "name": "approved",
          "type": "address"
        },
        {
          "indexed": true,
          "internalType": "uint256",
          "name": "tokenId",
          "type": "uint256"
        }
      ],
      "name": "Approval",
      "type": "event"
    },
    {
      "anonymous": false,
      "inputs": [
        {
          "indexed": true,
          "internalType": "address",
          "name": "owner",
          "type": "address"
        },
        {
          "indexed": true,
          "internalType": "address",
          "name": "operator",
          "type": "address"
        },
        {
          "indexed": false,
          "internalType": "bool",
          "name": "approved",
          "type": "bool"
        }
      ],
      "name": "ApprovalForAll",
      "type": "event"
    },
    {
      "anonymous": false,
      "inputs": [
        {
          "indexed": true,
          "internalType": "address",
          "name": "previousOwner",
          "type": "address"
        },
        {
          "indexed": true,
          "internalType": "address",
          "name": "newOwner",
          "type": "address"
        }
      ],
      "name": "OwnershipTransferred",
      "type": "event"
    },
    {
      "anonymous": false,
      "inputs": [
        {
          "indexed": true,
          "internalType": "address",
          "name": "from",
          "type": "address"
        },
        {
          "indexed": true,
          "internalType": "address",
          "name": "to",
          "type": "address"
        },
        {
          "indexed": true,
          "internalType": "uint256",
          "name": "tokenId",
          "type": "uint256"
        }
      ],
      "name": "Transfer",
      "type": "event"
    },
    {
      "inputs": [
        {
          "internalType": "address",
          "name": "to",
          "type": "address"
        },
        {
          "internalType": "uint256",
          "name": "tokenId",
          "type": "uint256"
        }
      ],
      "name": "approve",
      "outputs": [],
      "stateMutability": "nonpayable",
      "type": "function"
    },
    {
      "inputs": [
        {
          "internalType": "address",
          "name": "owner",
          "type": "address"
        }
      ],
      "name": "balanceOf",
      "outputs": [
        {
          "internalType": "uint256",
          "name": "",
          "type": "uint256"
        }
      ],
      "stateMutability": "view",
      "type": "function"
    },
    {
      "inputs": [
        {
          "internalType": "uint256",
          "name": "tokenId",
          "type": "uint256"
        }
      ],
      "name": "getApproved",
      "outputs": [
        {
          "internalType": "address",
          "name": "",
          "type": "address"
        }
      ],
      "stateMutability": "view",
      "type": "function"
    },
    {
      "inputs": [],
      "name": "getPrice",
      "outputs": [
        {
          "internalType": "uint256",
          "name": "",
          "type": "uint256"
        }
      ],
      "stateMutability": "view",
      "type": "function"
    },
    {
      "inputs": [
        {
          "internalType": "address",
          "name": "owner",
          "type": "address"
        },
        {
          "internalType": "address",
          "name": "operator",
          "type": "address"
        }
      ],
      "name": "isApprovedForAll",
      "outputs": [
        {
          "internalType": "bool",
          "name": "",
          "type": "bool"
        }
      ],
      "stateMutability": "view",
      "type": "function"
    },
    {
      "inputs": [
        {
          "internalType": "uint8",
          "name": "_amount",
          "type": "uint8"
        }
      ],
      "name": "mint",
      "outputs": [],
      "stateMutability": "payable",
      "type": "function"
    },
    {
      "inputs": [
        {
          "internalType": "address",
          "name": "_to",
          "type": "address"
        },
        {
          "internalType": "uint256",
          "name": "_amount",
          "type": "uint256"
        }
      ],
      "name": "mintTo",
      "outputs": [],
      "stateMutability": "nonpayable",
      "type": "function"
    },
    {
      "inputs": [],
      "name": "name",
      "outputs": [
        {
          "internalType": "string",
          "name": "",
          "type": "string"
        }
      ],
      "stateMutability": "view",
      "type": "function"
    },
    {
      "inputs": [],
      "name": "owner",
      "outputs": [
        {
          "internalType": "address",
          "name": "",
          "type": "address"
        }
      ],
      "stateMutability": "view",
      "type": "function"
    },
    {
      "inputs": [
        {
          "internalType": "uint256",
          "name": "tokenId",
          "type": "uint256"
        }
      ],
      "name": "ownerOf",
      "outputs": [
        {
          "internalType": "address",
          "name": "",
          "type": "address"
        }
      ],
      "stateMutability": "view",
      "type": "function"
    },
    {
      "inputs": [
        {
          "internalType": "bool",
          "name": "_value",
          "type": "bool"
        }
      ],
      "name": "pause",
      "outputs": [],
      "stateMutability": "nonpayable",
      "type": "function"
    },
    {
      "inputs": [],
      "name": "renounceOwnership",
      "outputs": [],
      "stateMutability": "nonpayable",
      "type": "function"
    },
    {
      "inputs": [
        {
          "internalType": "address",
          "name": "from",
          "type": "address"
        },
        {
          "internalType": "address",
          "name": "to",
          "type": "address"
        },
        {
          "internalType": "uint256",
          "name": "tokenId",
          "type": "uint256"
        }
      ],
      "name": "safeTransferFrom",
      "outputs": [],
      "stateMutability": "nonpayable",
      "type": "function"
    },
    {
      "inputs": [
        {
          "internalType": "address",
          "name": "from",
          "type": "address"
        },
        {
          "internalType": "address",
          "name": "to",
          "type": "address"
        },
        {
          "internalType": "uint256",
          "name": "tokenId",
          "type": "uint256"
        },
        {
          "internalType": "bytes",
          "name": "_data",
          "type": "bytes"
        }
      ],
      "name": "safeTransferFrom",
      "outputs": [],
      "stateMutability": "nonpayable",
      "type": "function"
    },
    {
      "inputs": [
        {
          "internalType": "address",
          "name": "operator",
          "type": "address"
        },
        {
          "internalType": "bool",
          "name": "approved",
          "type": "bool"
        }
      ],
      "name": "setApprovalForAll",
      "outputs": [],
      "stateMutability": "nonpayable",
      "type": "function"
    },
    {
      "inputs": [
        {
          "internalType": "string",
          "name": "baseURI",
          "type": "string"
        }
      ],
      "name": "setBaseURI",
      "outputs": [],
      "stateMutability": "nonpayable",
      "type": "function"
    },
    {
      "inputs": [
        {
          "internalType": "bytes4",
          "name": "interfaceId",
          "type": "bytes4"
        }
      ],
      "name": "supportsInterface",
      "outputs": [
        {
          "internalType": "bool",
          "name": "",
          "type": "bool"
        }
      ],
      "stateMutability": "view",
      "type": "function"
    },
    {
      "inputs": [],
      "name": "symbol",
      "outputs": [
        {
          "internalType": "string",
          "name": "",
          "type": "string"
        }
      ],
      "stateMutability": "view",
      "type": "function"
    },
    {
      "inputs": [
        {
          "internalType": "uint256",
          "name": "index",
          "type": "uint256"
        }
      ],
      "name": "tokenByIndex",
      "outputs": [
        {
          "internalType": "uint256",
          "name": "",
          "type": "uint256"
        }
      ],
      "stateMutability": "view",
      "type": "function"
    },
    {
      "inputs": [
        {
          "internalType": "address",
          "name": "owner",
          "type": "address"
        },
        {
          "internalType": "uint256",
          "name": "index",
          "type": "uint256"
        }
      ],
      "name": "tokenOfOwnerByIndex",
      "outputs": [
        {
          "internalType": "uint256",
          "name": "",
          "type": "uint256"
        }
      ],
      "stateMutability": "view",
      "type": "function"
    },
    {
      "inputs": [
        {
          "internalType": "uint256",
          "name": "tokenId",
          "type": "uint256"
        }
      ],
      "name": "tokenURI",
      "outputs": [
        {
          "internalType": "string",
          "name": "",
          "type": "string"
        }
      ],
      "stateMutability": "view",
      "type": "function"
    },
    {
      "inputs": [],
      "name": "totalSupply",
      "outputs": [
        {
          "internalType": "uint256",
          "name": "",
          "type": "uint256"
        }
      ],
      "stateMutability": "view",
      "type": "function"
    },
    {
      "inputs": [
        {
          "internalType": "address",
          "name": "from",
          "type": "address"
        },
        {
          "internalType": "address",
          "name": "to",
          "type": "address"
        },
        {
          "internalType": "uint256",
          "name": "tokenId",
          "type": "uint256"
        }
      ],
      "name": "transferFrom",
      "outputs": [],
      "stateMutability": "nonpayable",
      "type": "function"
    },
    {
      "inputs": [
        {
          "internalType": "address",
          "name": "newOwner",
          "type": "address"
        }
      ],
      "name": "transferOwnership",
      "outputs": [],
      "stateMutability": "nonpayable",
      "type": "function"
    },
    {
      "inputs": [
        {
          "internalType": "address",
          "name": "_owner",
          "type": "address"
        }
      ],
      "name": "walletOfOwner",
      "outputs": [
        {
          "internalType": "uint256[]",
          "name": "",
          "type": "uint256[]"
        }
      ],
      "stateMutability": "view",
      "type": "function"
    },
    {
      "inputs": [],
      "name": "withdrawBalance",
      "outputs": [],
      "stateMutability": "payable",
      "type": "function"
    }
  ],
  "bytecode": "0x608060405273d7e4a8e47f9645a0a7594a343ff13859efe7fcc1600e60016101000a81548173ffffffffffffffffffffffffffffffffffffffff021916908373ffffffffffffffffffffffffffffffffffffffff16021790555073f3644fed397f1531833d23166cc3b82c90caaca6600f60006101000a81548173ffffffffffffffffffffffffffffffffffffffff021916908373ffffffffffffffffffffffffffffffffffffffff160217905550735e4165149c77bce857585789dafdf6f54bc34650601060006101000a81548173ffffffffffffffffffffffffffffffffffffffff021916908373ffffffffffffffffffffffffffffffffffffffff16021790555073a8d145dd3003817da1dc83f838ee5088b65acf2e601160006101000a81548173ffffffffffffffffffffffffffffffffffffffff021916908373ffffffffffffffffffffffffffffffffffffffff16021790555073f59baccbacfa9c87970a6ccd52af8dfdf87dff1c601260006101000a81548173ffffffffffffffffffffffffffffffffffffffff021916908373ffffffffffffffffffffffffffffffffffffffff16021790555072ec891371bbd69d4cc75f6a55dcd9792a6f0be6601360006101000a81548173ffffffffffffffffffffffffffffffffffffffff021916908373ffffffffffffffffffffffffffffffffffffffff16021790555073262456d9a98537f4706324666b28bfa4e9d23446601460006101000a81548173ffffffffffffffffffffffffffffffffffffffff021916908373ffffffffffffffffffffffffffffffffffffffff1602179055507367b70cd9e2926f901f55ac2d34d0652be975cd4e601560006101000a81548173ffffffffffffffffffffffffffffffffffffffff021916908373ffffffffffffffffffffffffffffffffffffffff160217905550731ddab7a7e4f1c7a75a6b704c9d26cf7bb294a67d601660006101000a81548173ffffffffffffffffffffffffffffffffffffffff021916908373ffffffffffffffffffffffffffffffffffffffff1602179055503480156200030d57600080fd5b5060405162005d2838038062005d28833981810160405281019062000333919062001392565b6040518060400160405280601181526020017f4461776e206f66207468652044696e6f730000000000000000000000000000008152506040518060400160405280600481526020017f444f5444000000000000000000000000000000000000000000000000000000008152508160009080519060200190620003b79291906200122d565b508060019080519060200190620003d09291906200122d565b505050620003f3620003e76200061960201b60201c565b6200062160201b60201c565b6200040481620006e760201b60201c565b62000439601660009054906101000a900473ffffffffffffffffffffffffffffffffffffffff1660006200079260201b60201c565b6200046e601460009054906101000a900473ffffffffffffffffffffffffffffffffffffffff1660016200079260201b60201c565b620004a3601560009054906101000a900473ffffffffffffffffffffffffffffffffffffffff1660026200079260201b60201c565b620004d8601260009054906101000a900473ffffffffffffffffffffffffffffffffffffffff1660036200079260201b60201c565b6200050d601360009054906101000a900473ffffffffffffffffffffffffffffffffffffffff1660046200079260201b60201c565b62000542601160009054906101000a900473ffffffffffffffffffffffffffffffffffffffff1660056200079260201b60201c565b62000577600f60009054906101000a900473ffffffffffffffffffffffffffffffffffffffff1660066200079260201b60201c565b620005ac601060009054906101000a900473ffffffffffffffffffffffffffffffffffffffff1660076200079260201b60201c565b620005e1600e60019054906101000a900473ffffffffffffffffffffffffffffffffffffffff1660086200079260201b60201c565b66e6ed27d6668000600c8190555060c8600d819055506001600e60006101000a81548160ff0219169083151502179055505062001988565b600033905090565b6000600a60009054906101000a900473ffffffffffffffffffffffffffffffffffffffff16905081600a60006101000a81548173ffffffffffffffffffffffffffffffffffffffff021916908373ffffffffffffffffffffffffffffffffffffffff1602179055508173ffffffffffffffffffffffffffffffffffffffff168173ffffffffffffffffffffffffffffffffffffffff167f8be0079c531659141344cd1fd0a4f28419497f9722a3daafe3b4186f6b6457e060405160405180910390a35050565b620006f76200061960201b60201c565b73ffffffffffffffffffffffffffffffffffffffff166200071d620007b860201b60201c565b73ffffffffffffffffffffffffffffffffffffffff161462000776576040517f08c379a00000000000000000000000000000000000000000000000000000000081526004016200076d90620016ac565b60405180910390fd5b80600b90805190602001906200078e9291906200122d565b5050565b620007b4828260405180602001604052806000815250620007e260201b60201c565b5050565b6000600a60009054906101000a900473ffffffffffffffffffffffffffffffffffffffff16905090565b620007f483836200085060201b60201c565b62000809600084848462000a3660201b60201c565b6200084b576040517f08c379a0000000000000000000000000000000000000000000000000000000008152600401620008429062001624565b60405180910390fd5b505050565b600073ffffffffffffffffffffffffffffffffffffffff168273ffffffffffffffffffffffffffffffffffffffff161415620008c3576040517f08c379a0000000000000000000000000000000000000000000000000000000008152600401620008ba906200168a565b60405180910390fd5b620008d48162000bf060201b60201c565b1562000917576040517f08c379a00000000000000000000000000000000000000000000000000000000081526004016200090e9062001646565b60405180910390fd5b6200092b6000838362000c5c60201b60201c565b6001600360008473ffffffffffffffffffffffffffffffffffffffff1673ffffffffffffffffffffffffffffffffffffffff16815260200190815260200160002060008282546200097d919062001762565b92505081905550816002600083815260200190815260200160002060006101000a81548173ffffffffffffffffffffffffffffffffffffffff021916908373ffffffffffffffffffffffffffffffffffffffff160217905550808273ffffffffffffffffffffffffffffffffffffffff16600073ffffffffffffffffffffffffffffffffffffffff167fddf252ad1be2c89b69c2b068fc378daa952ba7f163c4a11628f55a4df523b3ef60405160405180910390a45050565b600062000a648473ffffffffffffffffffffffffffffffffffffffff1662000c7960201b62001ae91760201c565b1562000be3578373ffffffffffffffffffffffffffffffffffffffff1663150b7a0262000a966200061960201b60201c565b8786866040518563ffffffff1660e01b815260040162000aba9493929190620015d0565b602060405180830381600087803b15801562000ad557600080fd5b505af192505050801562000b0957506040513d601f19601f8201168201806040525081019062000b06919062001366565b60015b62000b92573d806000811462000b3c576040519150601f19603f3d011682016040523d82523d6000602084013e62000b41565b606091505b5060008151141562000b8a576040517f08c379a000000000000000000000000000000000000000000000000000000000815260040162000b819062001624565b60405180910390fd5b805181602001fd5b63150b7a0260e01b7bffffffffffffffffffffffffffffffffffffffffffffffffffffffff1916817bffffffffffffffffffffffffffffffffffffffffffffffffffffffff19161491505062000be8565b600190505b949350505050565b60008073ffffffffffffffffffffffffffffffffffffffff166002600084815260200190815260200160002060009054906101000a900473ffffffffffffffffffffffffffffffffffffffff1673ffffffffffffffffffffffffffffffffffffffff1614159050919050565b62000c7483838362000c8c60201b62001afc1760201c565b505050565b600080823b905060008111915050919050565b62000ca483838362000dd360201b62001c101760201c565b600073ffffffffffffffffffffffffffffffffffffffff168373ffffffffffffffffffffffffffffffffffffffff16141562000cf15762000ceb8162000dd860201b60201c565b62000d39565b8173ffffffffffffffffffffffffffffffffffffffff168373ffffffffffffffffffffffffffffffffffffffff161462000d385762000d37838262000e2160201b60201c565b5b5b600073ffffffffffffffffffffffffffffffffffffffff168273ffffffffffffffffffffffffffffffffffffffff16141562000d865762000d808162000f9e60201b60201c565b62000dce565b8273ffffffffffffffffffffffffffffffffffffffff168273ffffffffffffffffffffffffffffffffffffffff161462000dcd5762000dcc8282620010e660201b60201c565b5b5b505050565b505050565b6008805490506009600083815260200190815260200160002081905550600881908060018154018082558091505060019003906000526020600020016000909190919091505550565b6000600162000e3b846200117260201b620014cd1760201c565b62000e479190620017bf565b905060006007600084815260200190815260200160002054905081811462000f2d576000600660008673ffffffffffffffffffffffffffffffffffffffff1673ffffffffffffffffffffffffffffffffffffffff168152602001908152602001600020600084815260200190815260200160002054905080600660008773ffffffffffffffffffffffffffffffffffffffff1673ffffffffffffffffffffffffffffffffffffffff168152602001908152602001600020600084815260200190815260200160002081905550816007600083815260200190815260200160002081905550505b6007600084815260200190815260200160002060009055600660008573ffffffffffffffffffffffffffffffffffffffff1673ffffffffffffffffffffffffffffffffffffffff16815260200190815260200160002060008381526020019081526020016000206000905550505050565b6000600160088054905062000fb49190620017bf565b90506000600960008481526020019081526020016000205490506000600883815481106200100b577f4e487b7100000000000000000000000000000000000000000000000000000000600052603260045260246000fd5b90600052602060002001549050806008838154811062001054577f4e487b7100000000000000000000000000000000000000000000000000000000600052603260045260246000fd5b906000526020600020018190555081600960008381526020019081526020016000208190555060096000858152602001908152602001600020600090556008805480620010ca577f4e487b7100000000000000000000000000000000000000000000000000000000600052603160045260246000fd5b6001900381819060005260206000200160009055905550505050565b6000620010fe836200117260201b620014cd1760201c565b905081600660008573ffffffffffffffffffffffffffffffffffffffff1673ffffffffffffffffffffffffffffffffffffffff168152602001908152602001600020600083815260200190815260200160002081905550806007600084815260200190815260200160002081905550505050565b60008073ffffffffffffffffffffffffffffffffffffffff168273ffffffffffffffffffffffffffffffffffffffff161415620011e6576040517f08c379a0000000000000000000000000000000000000000000000000000000008152600401620011dd9062001668565b60405180910390fd5b600360008373ffffffffffffffffffffffffffffffffffffffff1673ffffffffffffffffffffffffffffffffffffffff168152602001908152602001600020549050919050565b8280546200123b906200189a565b90600052602060002090601f0160209004810192826200125f5760008555620012ab565b82601f106200127a57805160ff1916838001178555620012ab565b82800160010185558215620012ab579182015b82811115620012aa5782518255916020019190600101906200128d565b5b509050620012ba9190620012be565b5090565b5b80821115620012d9576000816000905550600101620012bf565b5090565b6000620012f4620012ee8462001702565b620016ce565b9050828152602081018484840111156200130d57600080fd5b6200131a84828562001864565b509392505050565b60008151905062001333816200196e565b92915050565b600082601f8301126200134b57600080fd5b81516200135d848260208601620012dd565b91505092915050565b6000602082840312156200137957600080fd5b6000620013898482850162001322565b91505092915050565b600060208284031215620013a557600080fd5b600082015167ffffffffffffffff811115620013c057600080fd5b620013ce8482850162001339565b91505092915050565b620013e281620017fa565b82525050565b6000620013f58262001735565b62001401818562001740565b93506200141381856020860162001864565b6200141e816200195d565b840191505092915050565b60006200143860328362001751565b91507f4552433732313a207472616e7366657220746f206e6f6e20455243373231526560008301527f63656976657220696d706c656d656e74657200000000000000000000000000006020830152604082019050919050565b6000620014a0601c8362001751565b91507f4552433732313a20746f6b656e20616c7265616479206d696e746564000000006000830152602082019050919050565b6000620014e2602a8362001751565b91507f4552433732313a2062616c616e636520717565727920666f7220746865207a6560008301527f726f2061646472657373000000000000000000000000000000000000000000006020830152604082019050919050565b60006200154a60208362001751565b91507f4552433732313a206d696e7420746f20746865207a65726f20616464726573736000830152602082019050919050565b60006200158c60208362001751565b91507f4f776e61626c653a2063616c6c6572206973206e6f7420746865206f776e65726000830152602082019050919050565b620015ca816200185a565b82525050565b6000608082019050620015e76000830187620013d7565b620015f66020830186620013d7565b620016056040830185620015bf565b8181036060830152620016198184620013e8565b905095945050505050565b600060208201905081810360008301526200163f8162001429565b9050919050565b60006020820190508181036000830152620016618162001491565b9050919050565b600060208201905081810360008301526200168381620014d3565b9050919050565b60006020820190508181036000830152620016a5816200153b565b9050919050565b60006020820190508181036000830152620016c7816200157d565b9050919050565b6000604051905081810181811067ffffffffffffffff82111715620016f857620016f76200192e565b5b8060405250919050565b600067ffffffffffffffff82111562001720576200171f6200192e565b5b601f19601f8301169050602081019050919050565b600081519050919050565b600082825260208201905092915050565b600082825260208201905092915050565b60006200176f826200185a565b91506200177c836200185a565b9250827fffffffffffffffffffffffffffffffffffffffffffffffffffffffffffffffff03821115620017b457620017b3620018d0565b5b828201905092915050565b6000620017cc826200185a565b9150620017d9836200185a565b925082821015620017ef57620017ee620018d0565b5b828203905092915050565b600062001807826200183a565b9050919050565b60007fffffffff0000000000000000000000000000000000000000000000000000000082169050919050565b600073ffffffffffffffffffffffffffffffffffffffff82169050919050565b6000819050919050565b60005b838110156200188457808201518184015260208101905062001867565b8381111562001894576000848401525b50505050565b60006002820490506001821680620018b357607f821691505b60208210811415620018ca57620018c9620018ff565b5b50919050565b7f4e487b7100000000000000000000000000000000000000000000000000000000600052601160045260246000fd5b7f4e487b7100000000000000000000000000000000000000000000000000000000600052602260045260246000fd5b7f4e487b7100000000000000000000000000000000000000000000000000000000600052604160045260246000fd5b6000601f19601f8301169050919050565b62001979816200180e565b81146200198557600080fd5b50565b61439080620019986000396000f3fe6080604052600436106101815760003560e01c80635fd8c710116100d157806395d89b411161008a578063b88d4fde11610064578063b88d4fde14610564578063c87b56dd1461058d578063e985e9c5146105ca578063f2fde38b1461060757610181565b806395d89b41146104e557806398d5fdca14610510578063a22cb4651461053b57610181565b80635fd8c710146104035780636352211e1461040d5780636ecd23061461044a57806370a0823114610466578063715018a6146104a35780638da5cb5b146104ba57610181565b806323b872dd1161013e578063438b630011610118578063438b630014610337578063449a52f8146103745780634f6ccce71461039d57806355f804b3146103da57610181565b806323b872dd146102a85780632f745c59146102d157806342842e0e1461030e57610181565b806301ffc9a71461018657806302329a29146101c357806306fdde03146101ec578063081812fc14610217578063095ea7b31461025457806318160ddd1461027d575b600080fd5b34801561019257600080fd5b506101ad60048036038101906101a891906130f6565b610630565b6040516101ba9190613b71565b60405180910390f35b3480156101cf57600080fd5b506101ea60048036038101906101e591906130cd565b610642565b005b3480156101f857600080fd5b506102016106db565b60405161020e9190613b8c565b60405180910390f35b34801561022357600080fd5b5061023e60048036038101906102399190613189565b61076d565b60405161024b9190613ae8565b60405180910390f35b34801561026057600080fd5b5061027b60048036038101906102769190613091565b6107f2565b005b34801561028957600080fd5b5061029261090a565b60405161029f9190613e6e565b60405180910390f35b3480156102b457600080fd5b506102cf60048036038101906102ca9190612f8b565b610917565b005b3480156102dd57600080fd5b506102f860048036038101906102f39190613091565b610977565b6040516103059190613e6e565b60405180910390f35b34801561031a57600080fd5b5061033560048036038101906103309190612f8b565b610a1c565b005b34801561034357600080fd5b5061035e60048036038101906103599190612f26565b610a3c565b60405161036b9190613b4f565b60405180910390f35b34801561038057600080fd5b5061039b60048036038101906103969190613091565b610b36565b005b3480156103a957600080fd5b506103c460048036038101906103bf9190613189565b610c55565b6040516103d19190613e6e565b60405180910390f35b3480156103e657600080fd5b5061040160048036038101906103fc9190613148565b610cec565b005b61040b610d82565b005b34801561041957600080fd5b50610434600480360381019061042f9190613189565b6112df565b6040516104419190613ae8565b60405180910390f35b610464600480360381019061045f91906131b2565b611391565b005b34801561047257600080fd5b5061048d60048036038101906104889190612f26565b6114cd565b60405161049a9190613e6e565b60405180910390f35b3480156104af57600080fd5b506104b8611585565b005b3480156104c657600080fd5b506104cf61160d565b6040516104dc9190613ae8565b60405180910390f35b3480156104f157600080fd5b506104fa611637565b6040516105079190613b8c565b60405180910390f35b34801561051c57600080fd5b506105256116c9565b6040516105329190613e6e565b60405180910390f35b34801561054757600080fd5b50610562600480360381019061055d9190613055565b6116d3565b005b34801561057057600080fd5b5061058b60048036038101906105869190612fda565b611854565b005b34801561059957600080fd5b506105b460048036038101906105af9190613189565b6118b6565b6040516105c19190613b8c565b60405180910390f35b3480156105d657600080fd5b506105f160048036038101906105ec9190612f4f565b61195d565b6040516105fe9190613b71565b60405180910390f35b34801561061357600080fd5b5061062e60048036038101906106299190612f26565b6119f1565b005b600061063b82611c15565b9050919050565b61064a611c8f565b73ffffffffffffffffffffffffffffffffffffffff1661066861160d565b73ffffffffffffffffffffffffffffffffffffffff16146106be576040517f08c379a00000000000000000000000000000000000000000000000000000000081526004016106b590613dae565b60405180910390fd5b80600e60006101000a81548160ff02191690831515021790555050565b6060600080546106ea9061416e565b80601f01602080910402602001604051908101604052809291908181526020018280546107169061416e565b80156107635780601f1061073857610100808354040283529160200191610763565b820191906000526020600020905b81548152906001019060200180831161074657829003601f168201915b5050505050905090565b600061077882611c97565b6107b7576040517f08c379a00000000000000000000000000000000000000000000000000000000081526004016107ae90613d8e565b60405180910390fd5b6004600083815260200190815260200160002060009054906101000a900473ffffffffffffffffffffffffffffffffffffffff169050919050565b60006107fd826112df565b90508073ffffffffffffffffffffffffffffffffffffffff168373ffffffffffffffffffffffffffffffffffffffff16141561086e576040517f08c379a000000000000000000000000000000000000000000000000000000000815260040161086590613e0e565b60405180910390fd5b8073ffffffffffffffffffffffffffffffffffffffff1661088d611c8f565b73ffffffffffffffffffffffffffffffffffffffff1614806108bc57506108bb816108b6611c8f565b61195d565b5b6108fb576040517f08c379a00000000000000000000000000000000000000000000000000000000081526004016108f290613cee565b60405180910390fd5b6109058383611d03565b505050565b6000600880549050905090565b610928610922611c8f565b82611dbc565b610967576040517f08c379a000000000000000000000000000000000000000000000000000000000815260040161095e90613e2e565b60405180910390fd5b610972838383611e9a565b505050565b6000610982836114cd565b82106109c3576040517f08c379a00000000000000000000000000000000000000000000000000000000081526004016109ba90613bce565b60405180910390fd5b600660008473ffffffffffffffffffffffffffffffffffffffff1673ffffffffffffffffffffffffffffffffffffffff168152602001908152602001600020600083815260200190815260200160002054905092915050565b610a3783838360405180602001604052806000815250611854565b505050565b60606000610a49836114cd565b905060008167ffffffffffffffff811115610a8d577f4e487b7100000000000000000000000000000000000000000000000000000000600052604160045260246000fd5b604051908082528060200260200182016040528015610abb5781602001602082028036833780820191505090505b50905060005b82811015610b2b57610ad38582610977565b828281518110610b0c577f4e487b7100000000000000000000000000000000000000000000000000000000600052603260045260246000fd5b6020026020010181815250508080610b23906141a0565b915050610ac1565b508092505050919050565b610b3e611c8f565b73ffffffffffffffffffffffffffffffffffffffff16610b5c61160d565b73ffffffffffffffffffffffffffffffffffffffff1614610bb2576040517f08c379a0000000000000000000000000000000000000000000000000000000008152600401610ba990613dae565b60405180910390fd5b600d54811115610bf7576040517f08c379a0000000000000000000000000000000000000000000000000000000008152600401610bee90613d4e565b60405180910390fd5b6000610c0161090a565b905060005b82811015610c3657610c23848284610c1e9190613f96565b6120f6565b8080610c2e906141a0565b915050610c06565b5081600d6000828254610c499190614077565b92505081905550505050565b6000610c5f61090a565b8210610ca0576040517f08c379a0000000000000000000000000000000000000000000000000000000008152600401610c9790613e4e565b60405180910390fd5b60088281548110610cda577f4e487b7100000000000000000000000000000000000000000000000000000000600052603260045260246000fd5b90600052602060002001549050919050565b610cf4611c8f565b73ffffffffffffffffffffffffffffffffffffffff16610d1261160d565b73ffffffffffffffffffffffffffffffffffffffff1614610d68576040517f08c379a0000000000000000000000000000000000000000000000000000000008152600401610d5f90613dae565b60405180910390fd5b80600b9080519060200190610d7e929190612d35565b5050565b610d8a611c8f565b73ffffffffffffffffffffffffffffffffffffffff16610da861160d565b73ffffffffffffffffffffffffffffffffffffffff1614610dfe576040517f08c379a0000000000000000000000000000000000000000000000000000000008152600401610df590613dae565b60405180910390fd5b60004711610e0b57600080fd5b600e60019054906101000a900473ffffffffffffffffffffffffffffffffffffffff1673ffffffffffffffffffffffffffffffffffffffff166108fc610e5b60644761211490919063ffffffff16565b9081150290604051600060405180830381858888f19350505050610e7e57600080fd5b6000479050600f60009054906101000a900473ffffffffffffffffffffffffffffffffffffffff1673ffffffffffffffffffffffffffffffffffffffff166108fc610ee76103e8610ed9607d8661212a90919063ffffffff16565b61211490919063ffffffff16565b9081150290604051600060405180830381858888f19350505050158015610f12573d6000803e3d6000fd5b50601060009054906101000a900473ffffffffffffffffffffffffffffffffffffffff1673ffffffffffffffffffffffffffffffffffffffff166108fc610f776103e8610f69607d8661212a90919063ffffffff16565b61211490919063ffffffff16565b9081150290604051600060405180830381858888f19350505050158015610fa2573d6000803e3d6000fd5b50601160009054906101000a900473ffffffffffffffffffffffffffffffffffffffff1673ffffffffffffffffffffffffffffffffffffffff166108fc6110076103e8610ff9607d8661212a90919063ffffffff16565b61211490919063ffffffff16565b9081150290604051600060405180830381858888f19350505050158015611032573d6000803e3d6000fd5b50601260009054906101000a900473ffffffffffffffffffffffffffffffffffffffff1673ffffffffffffffffffffffffffffffffffffffff166108fc6110976103e8611089607d8661212a90919063ffffffff16565b61211490919063ffffffff16565b9081150290604051600060405180830381858888f193505050501580156110c2573d6000803e3d6000fd5b50601360009054906101000a900473ffffffffffffffffffffffffffffffffffffffff1673ffffffffffffffffffffffffffffffffffffffff166108fc6111276103e8611119607d8661212a90919063ffffffff16565b61211490919063ffffffff16565b9081150290604051600060405180830381858888f19350505050158015611152573d6000803e3d6000fd5b50601460009054906101000a900473ffffffffffffffffffffffffffffffffffffffff1673ffffffffffffffffffffffffffffffffffffffff166108fc6111b76103e86111a9607d8661212a90919063ffffffff16565b61211490919063ffffffff16565b9081150290604051600060405180830381858888f193505050501580156111e2573d6000803e3d6000fd5b50601560009054906101000a900473ffffffffffffffffffffffffffffffffffffffff1673ffffffffffffffffffffffffffffffffffffffff166108fc6112476103e8611239607d8661212a90919063ffffffff16565b61211490919063ffffffff16565b9081150290604051600060405180830381858888f19350505050158015611272573d6000803e3d6000fd5b50601660009054906101000a900473ffffffffffffffffffffffffffffffffffffffff1673ffffffffffffffffffffffffffffffffffffffff166108fc479081150290604051600060405180830381858888f193505050501580156112db573d6000803e3d6000fd5b5050565b6000806002600084815260200190815260200160002060009054906101000a900473ffffffffffffffffffffffffffffffffffffffff169050600073ffffffffffffffffffffffffffffffffffffffff168173ffffffffffffffffffffffffffffffffffffffff161415611388576040517f08c379a000000000000000000000000000000000000000000000000000000000815260040161137f90613d2e565b60405180910390fd5b80915050919050565b600061139b61090a565b9050600e60009054906101000a900460ff16156113ed576040517f08c379a00000000000000000000000000000000000000000000000000000000081526004016113e490613cae565b60405180910390fd5b60158260ff1610611433576040517f08c379a000000000000000000000000000000000000000000000000000000000815260040161142a90613bae565b60405180910390fd5b600d546127106114439190614077565b8260ff16826114529190613f96565b10611492576040517f08c379a000000000000000000000000000000000000000000000000000000000815260040161148990613cce565b60405180910390fd5b60005b8260ff168110156114c8576114b53382846114b09190613f96565b6120f6565b80806114c0906141a0565b915050611495565b505050565b60008073ffffffffffffffffffffffffffffffffffffffff168273ffffffffffffffffffffffffffffffffffffffff16141561153e576040517f08c379a000000000000000000000000000000000000000000000000000000000815260040161153590613d0e565b60405180910390fd5b600360008373ffffffffffffffffffffffffffffffffffffffff1673ffffffffffffffffffffffffffffffffffffffff168152602001908152602001600020549050919050565b61158d611c8f565b73ffffffffffffffffffffffffffffffffffffffff166115ab61160d565b73ffffffffffffffffffffffffffffffffffffffff1614611601576040517f08c379a00000000000000000000000000000000000000000000000000000000081526004016115f890613dae565b60405180910390fd5b61160b6000612140565b565b6000600a60009054906101000a900473ffffffffffffffffffffffffffffffffffffffff16905090565b6060600180546116469061416e565b80601f01602080910402602001604051908101604052809291908181526020018280546116729061416e565b80156116bf5780601f10611694576101008083540402835291602001916116bf565b820191906000526020600020905b8154815290600101906020018083116116a257829003601f168201915b5050505050905090565b6000600c54905090565b6116db611c8f565b73ffffffffffffffffffffffffffffffffffffffff168273ffffffffffffffffffffffffffffffffffffffff161415611749576040517f08c379a000000000000000000000000000000000000000000000000000000000815260040161174090613c6e565b60405180910390fd5b8060056000611756611c8f565b73ffffffffffffffffffffffffffffffffffffffff1673ffffffffffffffffffffffffffffffffffffffff16815260200190815260200160002060008473ffffffffffffffffffffffffffffffffffffffff1673ffffffffffffffffffffffffffffffffffffffff16815260200190815260200160002060006101000a81548160ff0219169083151502179055508173ffffffffffffffffffffffffffffffffffffffff16611803611c8f565b73ffffffffffffffffffffffffffffffffffffffff167f17307eab39ab6107e8899845ad3d59bd9653f200f220920489ca2b5937696c31836040516118489190613b71565b60405180910390a35050565b61186561185f611c8f565b83611dbc565b6118a4576040517f08c379a000000000000000000000000000000000000000000000000000000000815260040161189b90613e2e565b60405180910390fd5b6118b084848484612206565b50505050565b60606118c182611c97565b611900576040517f08c379a00000000000000000000000000000000000000000000000000000000081526004016118f790613dee565b60405180910390fd5b600061190a612262565b9050600081511161192a5760405180602001604052806000815250611955565b80611934846122f4565b604051602001611945929190613ac4565b6040516020818303038152906040525b915050919050565b6000600560008473ffffffffffffffffffffffffffffffffffffffff1673ffffffffffffffffffffffffffffffffffffffff16815260200190815260200160002060008373ffffffffffffffffffffffffffffffffffffffff1673ffffffffffffffffffffffffffffffffffffffff16815260200190815260200160002060009054906101000a900460ff16905092915050565b6119f9611c8f565b73ffffffffffffffffffffffffffffffffffffffff16611a1761160d565b73ffffffffffffffffffffffffffffffffffffffff1614611a6d576040517f08c379a0000000000000000000000000000000000000000000000000000000008152600401611a6490613dae565b60405180910390fd5b600073ffffffffffffffffffffffffffffffffffffffff168173ffffffffffffffffffffffffffffffffffffffff161415611add576040517f08c379a0000000000000000000000000000000000000000000000000000000008152600401611ad490613c0e565b60405180910390fd5b611ae681612140565b50565b600080823b905060008111915050919050565b611b07838383611c10565b600073ffffffffffffffffffffffffffffffffffffffff168373ffffffffffffffffffffffffffffffffffffffff161415611b4a57611b45816124a1565b611b89565b8173ffffffffffffffffffffffffffffffffffffffff168373ffffffffffffffffffffffffffffffffffffffff1614611b8857611b8783826124ea565b5b5b600073ffffffffffffffffffffffffffffffffffffffff168273ffffffffffffffffffffffffffffffffffffffff161415611bcc57611bc781612657565b611c0b565b8273ffffffffffffffffffffffffffffffffffffffff168273ffffffffffffffffffffffffffffffffffffffff1614611c0a57611c09828261279a565b5b5b505050565b505050565b60007f780e9d63000000000000000000000000000000000000000000000000000000007bffffffffffffffffffffffffffffffffffffffffffffffffffffffff1916827bffffffffffffffffffffffffffffffffffffffffffffffffffffffff19161480611c885750611c8782612819565b5b9050919050565b600033905090565b60008073ffffffffffffffffffffffffffffffffffffffff166002600084815260200190815260200160002060009054906101000a900473ffffffffffffffffffffffffffffffffffffffff1673ffffffffffffffffffffffffffffffffffffffff1614159050919050565b816004600083815260200190815260200160002060006101000a81548173ffffffffffffffffffffffffffffffffffffffff021916908373ffffffffffffffffffffffffffffffffffffffff160217905550808273ffffffffffffffffffffffffffffffffffffffff16611d76836112df565b73ffffffffffffffffffffffffffffffffffffffff167f8c5be1e5ebec7d5bd14f71427d1e84f3dd0314c0f7b2291e5b200ac8c7c3b92560405160405180910390a45050565b6000611dc782611c97565b611e06576040517f08c379a0000000000000000000000000000000000000000000000000000000008152600401611dfd90613c8e565b60405180910390fd5b6000611e11836112df565b90508073ffffffffffffffffffffffffffffffffffffffff168473ffffffffffffffffffffffffffffffffffffffff161480611e8057508373ffffffffffffffffffffffffffffffffffffffff16611e688461076d565b73ffffffffffffffffffffffffffffffffffffffff16145b80611e915750611e90818561195d565b5b91505092915050565b8273ffffffffffffffffffffffffffffffffffffffff16611eba826112df565b73ffffffffffffffffffffffffffffffffffffffff1614611f10576040517f08c379a0000000000000000000000000000000000000000000000000000000008152600401611f0790613dce565b60405180910390fd5b600073ffffffffffffffffffffffffffffffffffffffff168273ffffffffffffffffffffffffffffffffffffffff161415611f80576040517f08c379a0000000000000000000000000000000000000000000000000000000008152600401611f7790613c4e565b60405180910390fd5b611f8b8383836128fb565b611f96600082611d03565b6001600360008573ffffffffffffffffffffffffffffffffffffffff1673ffffffffffffffffffffffffffffffffffffffff1681526020019081526020016000206000828254611fe69190614077565b925050819055506001600360008473ffffffffffffffffffffffffffffffffffffffff1673ffffffffffffffffffffffffffffffffffffffff168152602001908152602001600020600082825461203d9190613f96565b92505081905550816002600083815260200190815260200160002060006101000a81548173ffffffffffffffffffffffffffffffffffffffff021916908373ffffffffffffffffffffffffffffffffffffffff160217905550808273ffffffffffffffffffffffffffffffffffffffff168473ffffffffffffffffffffffffffffffffffffffff167fddf252ad1be2c89b69c2b068fc378daa952ba7f163c4a11628f55a4df523b3ef60405160405180910390a4505050565b61211082826040518060200160405280600081525061290b565b5050565b600081836121229190613fec565b905092915050565b60008183612138919061401d565b905092915050565b6000600a60009054906101000a900473ffffffffffffffffffffffffffffffffffffffff16905081600a60006101000a81548173ffffffffffffffffffffffffffffffffffffffff021916908373ffffffffffffffffffffffffffffffffffffffff1602179055508173ffffffffffffffffffffffffffffffffffffffff168173ffffffffffffffffffffffffffffffffffffffff167f8be0079c531659141344cd1fd0a4f28419497f9722a3daafe3b4186f6b6457e060405160405180910390a35050565b612211848484611e9a565b61221d84848484612966565b61225c576040517f08c379a000000000000000000000000000000000000000000000000000000000815260040161225390613bee565b60405180910390fd5b50505050565b6060600b80546122719061416e565b80601f016020809104026020016040519081016040528092919081815260200182805461229d9061416e565b80156122ea5780601f106122bf576101008083540402835291602001916122ea565b820191906000526020600020905b8154815290600101906020018083116122cd57829003601f168201915b5050505050905090565b6060600082141561233c576040518060400160405280600181526020017f3000000000000000000000000000000000000000000000000000000000000000815250905061249c565b600082905060005b6000821461236e578080612357906141a0565b915050600a826123679190613fec565b9150612344565b60008167ffffffffffffffff8111156123b0577f4e487b7100000000000000000000000000000000000000000000000000000000600052604160045260246000fd5b6040519080825280601f01601f1916602001820160405280156123e25781602001600182028036833780820191505090505b5090505b60008514612495576001826123fb9190614077565b9150600a8561240a91906141e9565b60306124169190613f96565b60f81b818381518110612452577f4e487b7100000000000000000000000000000000000000000000000000000000600052603260045260246000fd5b60200101907effffffffffffffffffffffffffffffffffffffffffffffffffffffffffffff1916908160001a905350600a8561248e9190613fec565b94506123e6565b8093505050505b919050565b6008805490506009600083815260200190815260200160002081905550600881908060018154018082558091505060019003906000526020600020016000909190919091505550565b600060016124f7846114cd565b6125019190614077565b90506000600760008481526020019081526020016000205490508181146125e6576000600660008673ffffffffffffffffffffffffffffffffffffffff1673ffffffffffffffffffffffffffffffffffffffff168152602001908152602001600020600084815260200190815260200160002054905080600660008773ffffffffffffffffffffffffffffffffffffffff1673ffffffffffffffffffffffffffffffffffffffff168152602001908152602001600020600084815260200190815260200160002081905550816007600083815260200190815260200160002081905550505b6007600084815260200190815260200160002060009055600660008573ffffffffffffffffffffffffffffffffffffffff1673ffffffffffffffffffffffffffffffffffffffff16815260200190815260200160002060008381526020019081526020016000206000905550505050565b6000600160088054905061266b9190614077565b90506000600960008481526020019081526020016000205490506000600883815481106126c1577f4e487b7100000000000000000000000000000000000000000000000000000000600052603260045260246000fd5b906000526020600020015490508060088381548110612709577f4e487b7100000000000000000000000000000000000000000000000000000000600052603260045260246000fd5b90600052602060002001819055508160096000838152602001908152602001600020819055506009600085815260200190815260200160002060009055600880548061277e577f4e487b7100000000000000000000000000000000000000000000000000000000600052603160045260246000fd5b6001900381819060005260206000200160009055905550505050565b60006127a5836114cd565b905081600660008573ffffffffffffffffffffffffffffffffffffffff1673ffffffffffffffffffffffffffffffffffffffff168152602001908152602001600020600083815260200190815260200160002081905550806007600084815260200190815260200160002081905550505050565b60007f80ac58cd000000000000000000000000000000000000000000000000000000007bffffffffffffffffffffffffffffffffffffffffffffffffffffffff1916827bffffffffffffffffffffffffffffffffffffffffffffffffffffffff191614806128e457507f5b5e139f000000000000000000000000000000000000000000000000000000007bffffffffffffffffffffffffffffffffffffffffffffffffffffffff1916827bffffffffffffffffffffffffffffffffffffffffffffffffffffffff1916145b806128f457506128f382612afd565b5b9050919050565b612906838383611afc565b505050565b6129158383612b67565b6129226000848484612966565b612961576040517f08c379a000000000000000000000000000000000000000000000000000000000815260040161295890613bee565b60405180910390fd5b505050565b60006129878473ffffffffffffffffffffffffffffffffffffffff16611ae9565b15612af0578373ffffffffffffffffffffffffffffffffffffffff1663150b7a026129b0611c8f565b8786866040518563ffffffff1660e01b81526004016129d29493929190613b03565b602060405180830381600087803b1580156129ec57600080fd5b505af1925050508015612a1d57506040513d601f19601f82011682018060405250810190612a1a919061311f565b60015b612aa0573d8060008114612a4d576040519150601f19603f3d011682016040523d82523d6000602084013e612a52565b606091505b50600081511415612a98576040517f08c379a0000000000000000000000000000000000000000000000000000000008152600401612a8f90613bee565b60405180910390fd5b805181602001fd5b63150b7a0260e01b7bffffffffffffffffffffffffffffffffffffffffffffffffffffffff1916817bffffffffffffffffffffffffffffffffffffffffffffffffffffffff191614915050612af5565b600190505b949350505050565b60007f01ffc9a7000000000000000000000000000000000000000000000000000000007bffffffffffffffffffffffffffffffffffffffffffffffffffffffff1916827bffffffffffffffffffffffffffffffffffffffffffffffffffffffff1916149050919050565b600073ffffffffffffffffffffffffffffffffffffffff168273ffffffffffffffffffffffffffffffffffffffff161415612bd7576040517f08c379a0000000000000000000000000000000000000000000000000000000008152600401612bce90613d6e565b60405180910390fd5b612be081611c97565b15612c20576040517f08c379a0000000000000000000000000000000000000000000000000000000008152600401612c1790613c2e565b60405180910390fd5b612c2c600083836128fb565b6001600360008473ffffffffffffffffffffffffffffffffffffffff1673ffffffffffffffffffffffffffffffffffffffff1681526020019081526020016000206000828254612c7c9190613f96565b92505081905550816002600083815260200190815260200160002060006101000a81548173ffffffffffffffffffffffffffffffffffffffff021916908373ffffffffffffffffffffffffffffffffffffffff160217905550808273ffffffffffffffffffffffffffffffffffffffff16600073ffffffffffffffffffffffffffffffffffffffff167fddf252ad1be2c89b69c2b068fc378daa952ba7f163c4a11628f55a4df523b3ef60405160405180910390a45050565b828054612d419061416e565b90600052602060002090601f016020900481019282612d635760008555612daa565b82601f10612d7c57805160ff1916838001178555612daa565b82800160010185558215612daa579182015b82811115612da9578251825591602001919060010190612d8e565b5b509050612db79190612dbb565b5090565b5b80821115612dd4576000816000905550600101612dbc565b5090565b6000612deb612de684613eba565b613e89565b905082815260208101848484011115612e0357600080fd5b612e0e84828561412c565b509392505050565b6000612e29612e2484613eea565b613e89565b905082815260208101848484011115612e4157600080fd5b612e4c84828561412c565b509392505050565b600081359050612e63816142e7565b92915050565b600081359050612e78816142fe565b92915050565b600081359050612e8d81614315565b92915050565b600081519050612ea281614315565b92915050565b600082601f830112612eb957600080fd5b8135612ec9848260208601612dd8565b91505092915050565b600082601f830112612ee357600080fd5b8135612ef3848260208601612e16565b91505092915050565b600081359050612f0b8161432c565b92915050565b600081359050612f2081614343565b92915050565b600060208284031215612f3857600080fd5b6000612f4684828501612e54565b91505092915050565b60008060408385031215612f6257600080fd5b6000612f7085828601612e54565b9250506020612f8185828601612e54565b9150509250929050565b600080600060608486031215612fa057600080fd5b6000612fae86828701612e54565b9350506020612fbf86828701612e54565b9250506040612fd086828701612efc565b9150509250925092565b60008060008060808587031215612ff057600080fd5b6000612ffe87828801612e54565b945050602061300f87828801612e54565b935050604061302087828801612efc565b925050606085013567ffffffffffffffff81111561303d57600080fd5b61304987828801612ea8565b91505092959194509250565b6000806040838503121561306857600080fd5b600061307685828601612e54565b925050602061308785828601612e69565b9150509250929050565b600080604083850312156130a457600080fd5b60006130b285828601612e54565b92505060206130c385828601612efc565b9150509250929050565b6000602082840312156130df57600080fd5b60006130ed84828501612e69565b91505092915050565b60006020828403121561310857600080fd5b600061311684828501612e7e565b91505092915050565b60006020828403121561313157600080fd5b600061313f84828501612e93565b91505092915050565b60006020828403121561315a57600080fd5b600082013567ffffffffffffffff81111561317457600080fd5b61318084828501612ed2565b91505092915050565b60006020828403121561319b57600080fd5b60006131a984828501612efc565b91505092915050565b6000602082840312156131c457600080fd5b60006131d284828501612f11565b91505092915050565b60006131e78383613aa6565b60208301905092915050565b6131fc816140ab565b82525050565b600061320d82613f2a565b6132178185613f58565b935061322283613f1a565b8060005b8381101561325357815161323a88826131db565b975061324583613f4b565b925050600181019050613226565b5085935050505092915050565b613269816140bd565b82525050565b600061327a82613f35565b6132848185613f69565b935061329481856020860161413b565b61329d816142d6565b840191505092915050565b60006132b382613f40565b6132bd8185613f7a565b93506132cd81856020860161413b565b6132d6816142d6565b840191505092915050565b60006132ec82613f40565b6132f68185613f8b565b935061330681856020860161413b565b80840191505092915050565b600061331f600d83613f7a565b91507f32302044696e6f73206d617821000000000000000000000000000000000000006000830152602082019050919050565b600061335f602b83613f7a565b91507f455243373231456e756d657261626c653a206f776e657220696e646578206f7560008301527f74206f6620626f756e64730000000000000000000000000000000000000000006020830152604082019050919050565b60006133c5603283613f7a565b91507f4552433732313a207472616e7366657220746f206e6f6e20455243373231526560008301527f63656976657220696d706c656d656e74657200000000000000000000000000006020830152604082019050919050565b600061342b602683613f7a565b91507f4f776e61626c653a206e6577206f776e657220697320746865207a65726f206160008301527f64647265737300000000000000000000000000000000000000000000000000006020830152604082019050919050565b6000613491601c83613f7a565b91507f4552433732313a20746f6b656e20616c7265616479206d696e746564000000006000830152602082019050919050565b60006134d1602483613f7a565b91507f4552433732313a207472616e7366657220746f20746865207a65726f2061646460008301527f72657373000000000000000000000000000000000000000000000000000000006020830152604082019050919050565b6000613537601983613f7a565b91507f4552433732313a20617070726f766520746f2063616c6c6572000000000000006000830152602082019050919050565b6000613577602c83613f7a565b91507f4552433732313a206f70657261746f7220717565727920666f72206e6f6e657860008301527f697374656e7420746f6b656e00000000000000000000000000000000000000006020830152604082019050919050565b60006135dd601283613f7a565b91507f4d696e74696e67206973207061757365642100000000000000000000000000006000830152602082019050919050565b600061361d601083613f7a565b91507f537570706c7920657863656564656421000000000000000000000000000000006000830152602082019050919050565b600061365d603883613f7a565b91507f4552433732313a20617070726f76652063616c6c6572206973206e6f74206f7760008301527f6e6572206e6f7220617070726f76656420666f7220616c6c00000000000000006020830152604082019050919050565b60006136c3602a83613f7a565b91507f4552433732313a2062616c616e636520717565727920666f7220746865207a6560008301527f726f2061646472657373000000000000000000000000000000000000000000006020830152604082019050919050565b6000613729602983613f7a565b91507f4552433732313a206f776e657220717565727920666f72206e6f6e657869737460008301527f656e7420746f6b656e00000000000000000000000000000000000000000000006020830152604082019050919050565b600061378f601283613f7a565b91507f4865726420697320746f6f20736d616c6c2100000000000000000000000000006000830152602082019050919050565b60006137cf602083613f7a565b91507f4552433732313a206d696e7420746f20746865207a65726f20616464726573736000830152602082019050919050565b600061380f602c83613f7a565b91507f4552433732313a20617070726f76656420717565727920666f72206e6f6e657860008301527f697374656e7420746f6b656e00000000000000000000000000000000000000006020830152604082019050919050565b6000613875602083613f7a565b91507f4f776e61626c653a2063616c6c6572206973206e6f7420746865206f776e65726000830152602082019050919050565b60006138b5602983613f7a565b91507f4552433732313a207472616e73666572206f6620746f6b656e2074686174206960008301527f73206e6f74206f776e00000000000000000000000000000000000000000000006020830152604082019050919050565b600061391b602f83613f7a565b91507f4552433732314d657461646174613a2055524920717565727920666f72206e6f60008301527f6e6578697374656e7420746f6b656e00000000000000000000000000000000006020830152604082019050919050565b6000613981602183613f7a565b91507f4552433732313a20617070726f76616c20746f2063757272656e74206f776e6560008301527f72000000000000000000000000000000000000000000000000000000000000006020830152604082019050919050565b60006139e7603183613f7a565b91507f4552433732313a207472616e736665722063616c6c6572206973206e6f74206f60008301527f776e6572206e6f7220617070726f7665640000000000000000000000000000006020830152604082019050919050565b6000613a4d602c83613f7a565b91507f455243373231456e756d657261626c653a20676c6f62616c20696e646578206f60008301527f7574206f6620626f756e647300000000000000000000000000000000000000006020830152604082019050919050565b613aaf81614115565b82525050565b613abe81614115565b82525050565b6000613ad082856132e1565b9150613adc82846132e1565b91508190509392505050565b6000602082019050613afd60008301846131f3565b92915050565b6000608082019050613b1860008301876131f3565b613b2560208301866131f3565b613b326040830185613ab5565b8181036060830152613b44818461326f565b905095945050505050565b60006020820190508181036000830152613b698184613202565b905092915050565b6000602082019050613b866000830184613260565b92915050565b60006020820190508181036000830152613ba681846132a8565b905092915050565b60006020820190508181036000830152613bc781613312565b9050919050565b60006020820190508181036000830152613be781613352565b9050919050565b60006020820190508181036000830152613c07816133b8565b9050919050565b60006020820190508181036000830152613c278161341e565b9050919050565b60006020820190508181036000830152613c4781613484565b9050919050565b60006020820190508181036000830152613c67816134c4565b9050919050565b60006020820190508181036000830152613c878161352a565b9050919050565b60006020820190508181036000830152613ca78161356a565b9050919050565b60006020820190508181036000830152613cc7816135d0565b9050919050565b60006020820190508181036000830152613ce781613610565b9050919050565b60006020820190508181036000830152613d0781613650565b9050919050565b60006020820190508181036000830152613d27816136b6565b9050919050565b60006020820190508181036000830152613d478161371c565b9050919050565b60006020820190508181036000830152613d6781613782565b9050919050565b60006020820190508181036000830152613d87816137c2565b9050919050565b60006020820190508181036000830152613da781613802565b9050919050565b60006020820190508181036000830152613dc781613868565b9050919050565b60006020820190508181036000830152613de7816138a8565b9050919050565b60006020820190508181036000830152613e078161390e565b9050919050565b60006020820190508181036000830152613e2781613974565b9050919050565b60006020820190508181036000830152613e47816139da565b9050919050565b60006020820190508181036000830152613e6781613a40565b9050919050565b6000602082019050613e836000830184613ab5565b92915050565b6000604051905081810181811067ffffffffffffffff82111715613eb057613eaf6142a7565b5b8060405250919050565b600067ffffffffffffffff821115613ed557613ed46142a7565b5b601f19601f8301169050602081019050919050565b600067ffffffffffffffff821115613f0557613f046142a7565b5b601f19601f8301169050602081019050919050565b6000819050602082019050919050565b600081519050919050565b600081519050919050565b600081519050919050565b6000602082019050919050565b600082825260208201905092915050565b600082825260208201905092915050565b600082825260208201905092915050565b600081905092915050565b6000613fa182614115565b9150613fac83614115565b9250827fffffffffffffffffffffffffffffffffffffffffffffffffffffffffffffffff03821115613fe157613fe061421a565b5b828201905092915050565b6000613ff782614115565b915061400283614115565b92508261401257614011614249565b5b828204905092915050565b600061402882614115565b915061403383614115565b9250817fffffffffffffffffffffffffffffffffffffffffffffffffffffffffffffffff048311821515161561406c5761406b61421a565b5b828202905092915050565b600061408282614115565b915061408d83614115565b9250828210156140a05761409f61421a565b5b828203905092915050565b60006140b6826140f5565b9050919050565b60008115159050919050565b60007fffffffff0000000000000000000000000000000000000000000000000000000082169050919050565b600073ffffffffffffffffffffffffffffffffffffffff82169050919050565b6000819050919050565b600060ff82169050919050565b82818337600083830152505050565b60005b8381101561415957808201518184015260208101905061413e565b83811115614168576000848401525b50505050565b6000600282049050600182168061418657607f821691505b6020821081141561419a57614199614278565b5b50919050565b60006141ab82614115565b91507fffffffffffffffffffffffffffffffffffffffffffffffffffffffffffffffff8214156141de576141dd61421a565b5b600182019050919050565b60006141f482614115565b91506141ff83614115565b92508261420f5761420e614249565b5b828206905092915050565b7f4e487b7100000000000000000000000000000000000000000000000000000000600052601160045260246000fd5b7f4e487b7100000000000000000000000000000000000000000000000000000000600052601260045260246000fd5b7f4e487b7100000000000000000000000000000000000000000000000000000000600052602260045260246000fd5b7f4e487b7100000000000000000000000000000000000000000000000000000000600052604160045260246000fd5b6000601f19601f8301169050919050565b6142f0816140ab565b81146142fb57600080fd5b50565b614307816140bd565b811461431257600080fd5b50565b61431e816140c9565b811461432957600080fd5b50565b61433581614115565b811461434057600080fd5b50565b61434c8161411f565b811461435757600080fd5b5056fea264697066735822122093a626e5e36d7c50f5e648ceb3ed3ed15d4e68724083341c3d72712188a94a2664736f6c63430008000033",
  "linkReferences": {},
  "deployedLinkReferences": {}
}